{
  "_format": "hh-sol-artifact-1",
  "contractName": "URC20",
  "sourceName": "contracts/URC20.sol",
  "abi": [
    {
      "inputs": [
        {
          "internalType": "address",
          "name": "_priceOracle",
          "type": "address"
        }
      ],
      "stateMutability": "nonpayable",
      "type": "constructor"
    },
    {
      "inputs": [
        {
          "internalType": "address",
          "name": "spender",
          "type": "address"
        },
        {
          "internalType": "uint256",
          "name": "allowance",
          "type": "uint256"
        },
        {
          "internalType": "uint256",
          "name": "needed",
          "type": "uint256"
        }
      ],
      "name": "ERC20InsufficientAllowance",
      "type": "error"
    },
    {
      "inputs": [
        {
          "internalType": "address",
          "name": "sender",
          "type": "address"
        },
        {
          "internalType": "uint256",
          "name": "balance",
          "type": "uint256"
        },
        {
          "internalType": "uint256",
          "name": "needed",
          "type": "uint256"
        }
      ],
      "name": "ERC20InsufficientBalance",
      "type": "error"
    },
    {
      "inputs": [
        {
          "internalType": "address",
          "name": "approver",
          "type": "address"
        }
      ],
      "name": "ERC20InvalidApprover",
      "type": "error"
    },
    {
      "inputs": [
        {
          "internalType": "address",
          "name": "receiver",
          "type": "address"
        }
      ],
      "name": "ERC20InvalidReceiver",
      "type": "error"
    },
    {
      "inputs": [
        {
          "internalType": "address",
          "name": "sender",
          "type": "address"
        }
      ],
      "name": "ERC20InvalidSender",
      "type": "error"
    },
    {
      "inputs": [
        {
          "internalType": "address",
          "name": "spender",
          "type": "address"
        }
      ],
      "name": "ERC20InvalidSpender",
      "type": "error"
    },
    {
      "inputs": [
        {
          "internalType": "address",
          "name": "owner",
          "type": "address"
        }
      ],
      "name": "OwnableInvalidOwner",
      "type": "error"
    },
    {
      "inputs": [
        {
          "internalType": "address",
          "name": "account",
          "type": "address"
        }
      ],
      "name": "OwnableUnauthorizedAccount",
      "type": "error"
    },
    {
      "anonymous": false,
      "inputs": [
        {
          "indexed": true,
          "internalType": "address",
          "name": "owner",
          "type": "address"
        },
        {
          "indexed": true,
          "internalType": "address",
          "name": "spender",
          "type": "address"
        },
        {
          "indexed": false,
          "internalType": "uint256",
          "name": "value",
          "type": "uint256"
        }
      ],
      "name": "Approval",
      "type": "event"
    },
    {
      "anonymous": false,
      "inputs": [
        {
          "indexed": true,
          "internalType": "address",
          "name": "from",
          "type": "address"
        },
        {
          "indexed": false,
          "internalType": "string",
          "name": "targetChain",
          "type": "string"
        },
        {
          "indexed": false,
          "internalType": "string",
          "name": "targetAddress",
          "type": "string"
        },
        {
          "indexed": false,
          "internalType": "uint256",
          "name": "amount",
          "type": "uint256"
        }
      ],
      "name": "Bridged",
      "type": "event"
    },
    {
      "anonymous": false,
      "inputs": [
        {
          "indexed": true,
          "internalType": "address",
          "name": "from",
          "type": "address"
        },
        {
          "indexed": false,
          "internalType": "uint256",
          "name": "amount",
          "type": "uint256"
        }
      ],
      "name": "Burned",
      "type": "event"
    },
    {
      "anonymous": false,
      "inputs": [
        {
          "indexed": true,
          "internalType": "address",
          "name": "to",
          "type": "address"
        },
        {
          "indexed": false,
          "internalType": "uint256",
          "name": "amount",
          "type": "uint256"
        }
      ],
      "name": "Minted",
      "type": "event"
    },
    {
      "anonymous": false,
      "inputs": [
        {
          "indexed": true,
          "internalType": "address",
          "name": "previousOwner",
          "type": "address"
        },
        {
          "indexed": true,
          "internalType": "address",
          "name": "newOwner",
          "type": "address"
        }
      ],
      "name": "OwnershipTransferred",
      "type": "event"
    },
    {
      "anonymous": false,
      "inputs": [
        {
          "indexed": true,
          "internalType": "address",
          "name": "from",
          "type": "address"
        },
        {
          "indexed": true,
          "internalType": "address",
          "name": "to",
          "type": "address"
        },
        {
          "indexed": false,
          "internalType": "uint256",
          "name": "amount",
          "type": "uint256"
        }
      ],
      "name": "P2PTransfer",
      "type": "event"
    },
    {
      "anonymous": false,
      "inputs": [
        {
          "indexed": true,
          "internalType": "address",
          "name": "sender",
          "type": "address"
        },
        {
          "indexed": false,
          "internalType": "uint256",
          "name": "amount",
          "type": "uint256"
        }
      ],
      "name": "Received",
      "type": "event"
    },
    {
      "anonymous": false,
      "inputs": [
        {
          "indexed": true,
          "internalType": "address",
          "name": "user",
          "type": "address"
        },
        {
          "indexed": false,
          "internalType": "address",
          "name": "toToken",
          "type": "address"
        },
        {
          "indexed": false,
          "internalType": "uint256",
          "name": "amount",
          "type": "uint256"
        }
      ],
      "name": "Swapped",
      "type": "event"
    },
    {
      "anonymous": false,
      "inputs": [
        {
          "indexed": true,
          "internalType": "address",
          "name": "from",
          "type": "address"
        },
        {
          "indexed": true,
          "internalType": "address",
          "name": "to",
          "type": "address"
        },
        {
          "indexed": false,
          "internalType": "uint256",
          "name": "value",
          "type": "uint256"
        }
      ],
      "name": "Transfer",
      "type": "event"
    },
    {
      "stateMutability": "payable",
      "type": "fallback"
    },
    {
      "inputs": [
        {
          "internalType": "uint256",
          "name": "amount",
          "type": "uint256"
        }
      ],
      "name": "addLiquidity",
      "outputs": [],
      "stateMutability": "nonpayable",
      "type": "function"
    },
    {
      "inputs": [
        {
          "internalType": "address",
          "name": "owner",
          "type": "address"
        },
        {
          "internalType": "address",
          "name": "spender",
          "type": "address"
        }
      ],
      "name": "allowance",
      "outputs": [
        {
          "internalType": "uint256",
          "name": "",
          "type": "uint256"
        }
      ],
      "stateMutability": "view",
      "type": "function"
    },
    {
      "inputs": [
        {
          "internalType": "address",
          "name": "spender",
          "type": "address"
        },
        {
          "internalType": "uint256",
          "name": "value",
          "type": "uint256"
        }
      ],
      "name": "approve",
      "outputs": [
        {
          "internalType": "bool",
          "name": "",
          "type": "bool"
        }
      ],
      "stateMutability": "nonpayable",
      "type": "function"
    },
    {
      "inputs": [
        {
          "internalType": "address",
          "name": "token",
          "type": "address"
        }
      ],
      "name": "approveToken",
      "outputs": [],
      "stateMutability": "nonpayable",
      "type": "function"
    },
    {
      "inputs": [
        {
          "internalType": "address",
          "name": "",
          "type": "address"
        }
      ],
      "name": "approvedTokens",
      "outputs": [
        {
          "internalType": "bool",
          "name": "",
          "type": "bool"
        }
      ],
      "stateMutability": "view",
      "type": "function"
    },
    {
      "inputs": [
        {
          "internalType": "address",
          "name": "account",
          "type": "address"
        }
      ],
      "name": "balanceOf",
      "outputs": [
        {
          "internalType": "uint256",
          "name": "",
          "type": "uint256"
        }
      ],
      "stateMutability": "view",
      "type": "function"
    },
    {
      "inputs": [
        {
          "internalType": "address",
          "name": "token",
          "type": "address"
        }
      ],
      "name": "blockMemecoin",
      "outputs": [],
      "stateMutability": "nonpayable",
      "type": "function"
    },
    {
      "inputs": [
        {
          "internalType": "address",
          "name": "",
          "type": "address"
        }
      ],
      "name": "blockedMemecoins",
      "outputs": [
        {
          "internalType": "bool",
          "name": "",
          "type": "bool"
        }
      ],
      "stateMutability": "view",
      "type": "function"
    },
    {
      "inputs": [
        {
          "internalType": "string",
          "name": "targetChain",
          "type": "string"
        },
        {
          "internalType": "string",
          "name": "targetAddress",
          "type": "string"
        },
        {
          "internalType": "uint256",
          "name": "amount",
          "type": "uint256"
        }
      ],
      "name": "bridge",
      "outputs": [],
      "stateMutability": "nonpayable",
      "type": "function"
    },
    {
      "inputs": [
        {
          "internalType": "uint256",
          "name": "amount",
          "type": "uint256"
        }
      ],
      "name": "burn",
      "outputs": [],
      "stateMutability": "nonpayable",
      "type": "function"
    },
    {
      "inputs": [
        {
          "internalType": "uint256",
          "name": "amountUZS",
          "type": "uint256"
        }
      ],
      "name": "convertCurrency",
      "outputs": [
        {
          "internalType": "uint256",
          "name": "",
          "type": "uint256"
        }
      ],
      "stateMutability": "view",
      "type": "function"
    },
    {
      "inputs": [],
      "name": "decimals",
      "outputs": [
        {
          "internalType": "uint8",
          "name": "",
          "type": "uint8"
        }
      ],
      "stateMutability": "pure",
      "type": "function"
    },
    {
      "inputs": [],
      "name": "gasFeeInUSOD",
      "outputs": [
        {
          "internalType": "uint256",
          "name": "",
          "type": "uint256"
        }
      ],
      "stateMutability": "view",
      "type": "function"
    },
    {
      "inputs": [],
      "name": "getLiquidityPoolBalance",
      "outputs": [
        {
          "internalType": "uint256",
          "name": "",
          "type": "uint256"
        }
      ],
      "stateMutability": "view",
      "type": "function"
    },
    {
      "inputs": [],
      "name": "liquidityThreshold",
      "outputs": [
        {
          "internalType": "uint256",
          "name": "",
          "type": "uint256"
        }
      ],
      "stateMutability": "view",
      "type": "function"
    },
    {
      "inputs": [
        {
          "internalType": "address",
          "name": "to",
          "type": "address"
        },
        {
          "internalType": "uint256",
          "name": "amount",
          "type": "uint256"
        }
      ],
      "name": "mint",
      "outputs": [],
      "stateMutability": "nonpayable",
      "type": "function"
    },
    {
      "inputs": [],
      "name": "name",
      "outputs": [
        {
          "internalType": "string",
          "name": "",
          "type": "string"
        }
      ],
      "stateMutability": "view",
      "type": "function"
    },
    {
      "inputs": [],
      "name": "owner",
      "outputs": [
        {
          "internalType": "address",
          "name": "",
          "type": "address"
        }
      ],
      "stateMutability": "view",
      "type": "function"
    },
    {
      "inputs": [
        {
          "internalType": "address",
          "name": "to",
          "type": "address"
        },
        {
          "internalType": "uint256",
          "name": "amount",
          "type": "uint256"
        }
      ],
      "name": "p2pTransfer",
      "outputs": [],
      "stateMutability": "nonpayable",
      "type": "function"
    },
    {
      "inputs": [],
      "name": "priceOracle",
      "outputs": [
        {
          "internalType": "contract IPriceOracle",
          "name": "",
          "type": "address"
        }
      ],
      "stateMutability": "view",
      "type": "function"
    },
    {
      "inputs": [],
      "name": "renounceOwnership",
      "outputs": [],
      "stateMutability": "nonpayable",
      "type": "function"
    },
    {
      "inputs": [
        {
          "internalType": "address",
          "name": "newCollector",
          "type": "address"
        }
      ],
      "name": "setGasCollector",
      "outputs": [],
      "stateMutability": "nonpayable",
      "type": "function"
    },
    {
      "inputs": [
        {
          "internalType": "uint256",
          "name": "newGasFee",
          "type": "uint256"
        }
      ],
      "name": "setGasFee",
      "outputs": [],
      "stateMutability": "nonpayable",
      "type": "function"
    },
    {
      "inputs": [
        {
          "internalType": "address",
          "name": "newPool",
          "type": "address"
        }
      ],
      "name": "setLiquidityPool",
      "outputs": [],
      "stateMutability": "nonpayable",
      "type": "function"
    },
    {
      "inputs": [
        {
          "internalType": "address",
          "name": "toToken",
          "type": "address"
        },
        {
          "internalType": "uint256",
          "name": "amount",
          "type": "uint256"
        }
      ],
      "name": "swap",
      "outputs": [],
      "stateMutability": "nonpayable",
      "type": "function"
    },
    {
      "inputs": [],
      "name": "symbol",
      "outputs": [
        {
          "internalType": "string",
          "name": "",
          "type": "string"
        }
      ],
      "stateMutability": "view",
      "type": "function"
    },
    {
      "inputs": [],
      "name": "totalSupply",
      "outputs": [
        {
          "internalType": "uint256",
          "name": "",
          "type": "uint256"
        }
      ],
      "stateMutability": "view",
      "type": "function"
    },
    {
      "inputs": [
        {
          "internalType": "address",
          "name": "to",
          "type": "address"
        },
        {
          "internalType": "uint256",
          "name": "value",
          "type": "uint256"
        }
      ],
      "name": "transfer",
      "outputs": [
        {
          "internalType": "bool",
          "name": "",
          "type": "bool"
        }
      ],
      "stateMutability": "nonpayable",
      "type": "function"
    },
    {
      "inputs": [
        {
          "internalType": "address",
          "name": "from",
          "type": "address"
        },
        {
          "internalType": "address",
          "name": "to",
          "type": "address"
        },
        {
          "internalType": "uint256",
          "name": "value",
          "type": "uint256"
        }
      ],
      "name": "transferFrom",
      "outputs": [
        {
          "internalType": "bool",
          "name": "",
          "type": "bool"
        }
      ],
      "stateMutability": "nonpayable",
      "type": "function"
    },
    {
      "inputs": [
        {
          "internalType": "address",
          "name": "newOwner",
          "type": "address"
        }
      ],
      "name": "transferOwnership",
      "outputs": [],
      "stateMutability": "nonpayable",
      "type": "function"
    },
    {
      "inputs": [
        {
          "internalType": "address",
          "name": "recipient",
          "type": "address"
        },
        {
          "internalType": "uint256",
          "name": "amount",
          "type": "uint256"
        }
      ],
      "name": "transferWithGasFee",
      "outputs": [
        {
          "internalType": "bool",
          "name": "",
          "type": "bool"
        }
      ],
      "stateMutability": "nonpayable",
      "type": "function"
    },
    {
      "inputs": [
        {
          "internalType": "string",
          "name": "_fullName",
          "type": "string"
        },
        {
          "internalType": "string",
          "name": "_bankName",
          "type": "string"
        },
        {
          "internalType": "string",
          "name": "_accountNumber",
          "type": "string"
        },
        {
          "internalType": "string",
          "name": "_mfo",
          "type": "string"
        },
        {
          "internalType": "string",
          "name": "_inn",
          "type": "string"
        },
        {
          "internalType": "string",
          "name": "_cardNumber",
          "type": "string"
        },
        {
          "internalType": "string",
          "name": "_cardType",
          "type": "string"
        },
        {
          "internalType": "string",
          "name": "_accountCurrency",
          "type": "string"
        }
      ],
      "name": "updateBankDetails",
      "outputs": [],
      "stateMutability": "nonpayable",
      "type": "function"
    },
    {
      "inputs": [],
      "name": "updateGasFeeFromOracle",
      "outputs": [],
      "stateMutability": "nonpayable",
      "type": "function"
    },
    {
      "stateMutability": "payable",
      "type": "receive"
    }
  ],
  "bytecode": "0x60a06040527b056c062c202b73b6c52e630ee27f59924b5eb71f8000000000000000608090815250606460065564e8d4a5100060075573dd6342cd45ce437382c00523cc6f22968bdd21b8600860006101000a81548173ffffffffffffffffffffffffffffffffffffffff021916908373ffffffffffffffffffffffffffffffffffffffff16021790555073dd6342cd45ce437382c00523cc6f22968bdd21b8600960006101000a81548173ffffffffffffffffffffffffffffffffffffffff021916908373ffffffffffffffffffffffffffffffffffffffff160217905550348015620000ec57600080fd5b5060405162003ba638038062003ba6833981810160405281019062000112919062000900565b3360405180606001604052806024815260200162003b82602491396040518060400160405280600481526020017f55534f4400000000000000000000000000000000000000000000000000000000815250816003908162000174919062000bac565b50806004908162000186919062000bac565b505050600073ffffffffffffffffffffffffffffffffffffffff168173ffffffffffffffffffffffffffffffffffffffff1603620001fe5760006040517f1e4fbdf7000000000000000000000000000000000000000000000000000000008152600401620001f5919062000ca4565b60405180910390fd5b6200020f816200051360201b60201c565b506200022433608051620005d960201b60201c565b80600a60006101000a81548173ffffffffffffffffffffffffffffffffffffffff021916908373ffffffffffffffffffffffffffffffffffffffff1602179055506040518061010001604052806040518060400160405280601181526020017f44494c4d55524f54205348414b49524f5600000000000000000000000000000081525081526020016040518060400160405280600d81526020017f536d6172742062616e6b20414a0000000000000000000000000000000000000081525081526020016040518060400160405280601481526020017f323331313830303036303030303131393932303000000000000000000000000081525081526020016040518060400160405280600581526020017f303131393900000000000000000000000000000000000000000000000000000081525081526020016040518060400160405280600981526020017f333130313233383232000000000000000000000000000000000000000000000081525081526020016040518060400160405280601081526020017f343036373037303030333334373437380000000000000000000000000000000081525081526020016040518060400160405280600981526020017f48554d4f2d56697361000000000000000000000000000000000000000000000081525081526020016040518060400160405280600381526020017f555a530000000000000000000000000000000000000000000000000000000000815250815250600b600082015181600001908162000460919062000bac565b50602082015181600101908162000478919062000bac565b50604082015181600201908162000490919062000bac565b506060820151816003019081620004a8919062000bac565b506080820151816004019081620004c0919062000bac565b5060a0820151816005019081620004d8919062000bac565b5060c0820151816006019081620004f0919062000bac565b5060e082015181600701908162000508919062000bac565b509050505062000d96565b6000600560009054906101000a900473ffffffffffffffffffffffffffffffffffffffff16905081600560006101000a81548173ffffffffffffffffffffffffffffffffffffffff021916908373ffffffffffffffffffffffffffffffffffffffff1602179055508173ffffffffffffffffffffffffffffffffffffffff168173ffffffffffffffffffffffffffffffffffffffff167f8be0079c531659141344cd1fd0a4f28419497f9722a3daafe3b4186f6b6457e060405160405180910390a35050565b600073ffffffffffffffffffffffffffffffffffffffff168273ffffffffffffffffffffffffffffffffffffffff16036200064e5760006040517fec442f0500000000000000000000000000000000000000000000000000000000815260040162000645919062000ca4565b60405180910390fd5b62000662600083836200066660201b60201c565b5050565b600073ffffffffffffffffffffffffffffffffffffffff168373ffffffffffffffffffffffffffffffffffffffff1603620006bc578060026000828254620006af919062000cf0565b9250508190555062000792565b60008060008573ffffffffffffffffffffffffffffffffffffffff1673ffffffffffffffffffffffffffffffffffffffff168152602001908152602001600020549050818110156200074b578381836040517fe450d38c000000000000000000000000000000000000000000000000000000008152600401620007429392919062000d3c565b60405180910390fd5b8181036000808673ffffffffffffffffffffffffffffffffffffffff1673ffffffffffffffffffffffffffffffffffffffff16815260200190815260200160002081905550505b600073ffffffffffffffffffffffffffffffffffffffff168273ffffffffffffffffffffffffffffffffffffffff1603620007dd57806002600082825403925050819055506200082a565b806000808473ffffffffffffffffffffffffffffffffffffffff1673ffffffffffffffffffffffffffffffffffffffff168152602001908152602001600020600082825401925050819055505b8173ffffffffffffffffffffffffffffffffffffffff168373ffffffffffffffffffffffffffffffffffffffff167fddf252ad1be2c89b69c2b068fc378daa952ba7f163c4a11628f55a4df523b3ef8360405162000889919062000d79565b60405180910390a3505050565b600080fd5b600073ffffffffffffffffffffffffffffffffffffffff82169050919050565b6000620008c8826200089b565b9050919050565b620008da81620008bb565b8114620008e657600080fd5b50565b600081519050620008fa81620008cf565b92915050565b60006020828403121562000919576200091862000896565b5b60006200092984828501620008e9565b91505092915050565b600081519050919050565b7f4e487b7100000000000000000000000000000000000000000000000000000000600052604160045260246000fd5b7f4e487b7100000000000000000000000000000000000000000000000000000000600052602260045260246000fd5b60006002820490506001821680620009b457607f821691505b602082108103620009ca57620009c96200096c565b5b50919050565b60008190508160005260206000209050919050565b60006020601f8301049050919050565b600082821b905092915050565b60006008830262000a347fffffffffffffffffffffffffffffffffffffffffffffffffffffffffffffffff82620009f5565b62000a408683620009f5565b95508019841693508086168417925050509392505050565b6000819050919050565b6000819050919050565b600062000a8d62000a8762000a818462000a58565b62000a62565b62000a58565b9050919050565b6000819050919050565b62000aa98362000a6c565b62000ac162000ab88262000a94565b84845462000a02565b825550505050565b600090565b62000ad862000ac9565b62000ae581848462000a9e565b505050565b5b8181101562000b0d5762000b0160008262000ace565b60018101905062000aeb565b5050565b601f82111562000b5c5762000b2681620009d0565b62000b3184620009e5565b8101602085101562000b41578190505b62000b5962000b5085620009e5565b83018262000aea565b50505b505050565b600082821c905092915050565b600062000b816000198460080262000b61565b1980831691505092915050565b600062000b9c838362000b6e565b9150826002028217905092915050565b62000bb78262000932565b67ffffffffffffffff81111562000bd35762000bd26200093d565b5b62000bdf82546200099b565b62000bec82828562000b11565b600060209050601f83116001811462000c24576000841562000c0f578287015190505b62000c1b858262000b8e565b86555062000c8b565b601f19841662000c3486620009d0565b60005b8281101562000c5e5784890151825560018201915060208501945060208101905062000c37565b8683101562000c7e578489015162000c7a601f89168262000b6e565b8355505b6001600288020188555050505b505050505050565b62000c9e81620008bb565b82525050565b600060208201905062000cbb600083018462000c93565b92915050565b7f4e487b7100000000000000000000000000000000000000000000000000000000600052601160045260246000fd5b600062000cfd8262000a58565b915062000d0a8362000a58565b925082820190508082111562000d255762000d2462000cc1565b5b92915050565b62000d368162000a58565b82525050565b600060608201905062000d53600083018662000c93565b62000d62602083018562000d2b565b62000d71604083018462000d2b565b949350505050565b600060208201905062000d90600083018462000d2b565b92915050565b608051612dd362000daf60003960005050612dd36000f3fe6080604052600436106101f25760003560e01c8063678edca31161010d5780638f6f341e116100a0578063b54eaa171161006f578063b54eaa171461078b578063c9688086146107c8578063d004f0f7146107f3578063dd62ed3e1461081c578063f2fde38b1461085957610247565b80638f6f341e146106bd57806395d89b41146106e657806398af626914610711578063a9059cbb1461074e57610247565b8063715018a6116100dc578063715018a61461062957806380b2edd8146106405780638da362e3146106695780638da5cb5b1461069257610247565b8063678edca31461055d5780636d1ea3fa146105865780636f27cf64146105c357806370a08231146105ec57610247565b806331f6ef55116101855780634994ae9a116101545780634994ae9a146104c95780634d36cd15146104e05780634fcf9f711461050957806351c6590a1461053457610247565b806331f6ef5514610423578063360b37221461044c57806340c10f191461047757806342966c68146104a057610247565b80631eb2e987116101c15780631eb2e9871461035357806323b872dd146103905780632630c12f146103cd578063313ce567146103f857610247565b8063018770201461029757806306fdde03146102c0578063095ea7b3146102eb57806318160ddd1461032857610247565b36610247573373ffffffffffffffffffffffffffffffffffffffff167f88a5966d370b9919b20f3e2c13ff65706f196a4e32cc2c12bf57088f885258743460405161023d9190611f2c565b60405180910390a2005b3373ffffffffffffffffffffffffffffffffffffffff167f88a5966d370b9919b20f3e2c13ff65706f196a4e32cc2c12bf57088f885258743460405161028d9190611f2c565b60405180910390a2005b3480156102a357600080fd5b506102be60048036038101906102b99190611fb9565b610882565b005b3480156102cc57600080fd5b506102d561093d565b6040516102e29190612076565b60405180910390f35b3480156102f757600080fd5b50610312600480360381019061030d91906120c4565b6109cf565b60405161031f919061211f565b60405180910390f35b34801561033457600080fd5b5061033d6109f2565b60405161034a9190611f2c565b60405180910390f35b34801561035f57600080fd5b5061037a6004803603810190610375919061213a565b6109fc565b6040516103879190611f2c565b60405180910390f35b34801561039c57600080fd5b506103b760048036038101906103b29190612167565b610aa6565b6040516103c4919061211f565b60405180910390f35b3480156103d957600080fd5b506103e2610ad5565b6040516103ef9190612219565b60405180910390f35b34801561040457600080fd5b5061040d610afb565b60405161041a9190612250565b60405180910390f35b34801561042f57600080fd5b5061044a600480360381019061044591906123a0565b610b04565b005b34801561045857600080fd5b50610461610baa565b60405161046e9190611f2c565b60405180910390f35b34801561048357600080fd5b5061049e600480360381019061049991906120c4565b610bb0565b005b3480156104ac57600080fd5b506104c760048036038101906104c2919061213a565b610c59565b005b3480156104d557600080fd5b506104de610cf9565b005b3480156104ec57600080fd5b50610507600480360381019061050291906120c4565b610db4565b005b34801561051557600080fd5b5061051e610e6c565b60405161052b9190611f2c565b60405180910390f35b34801561054057600080fd5b5061055b6004803603810190610556919061213a565b610e7c565b005b34801561056957600080fd5b50610584600480360381019061057f919061213a565b610f5e565b005b34801561059257600080fd5b506105ad60048036038101906105a89190611fb9565b610f70565b6040516105ba919061211f565b60405180910390f35b3480156105cf57600080fd5b506105ea60048036038101906105e59190611fb9565b610f90565b005b3480156105f857600080fd5b50610613600480360381019061060e9190611fb9565b61104b565b6040516106209190611f2c565b60405180910390f35b34801561063557600080fd5b5061063e611093565b005b34801561064c57600080fd5b5061066760048036038101906106629190611fb9565b6110a7565b005b34801561067557600080fd5b50610690600480360381019061068b919061242b565b61110a565b005b34801561069e57600080fd5b506106a761120b565b6040516106b491906125d0565b60405180910390f35b3480156106c957600080fd5b506106e460048036038101906106df9190611fb9565b611235565b005b3480156106f257600080fd5b506106fb611298565b6040516107089190612076565b60405180910390f35b34801561071d57600080fd5b50610738600480360381019061073391906120c4565b61132a565b604051610745919061211f565b60405180910390f35b34801561075a57600080fd5b50610775600480360381019061077091906120c4565b611411565b604051610782919061211f565b60405180910390f35b34801561079757600080fd5b506107b260048036038101906107ad9190611fb9565b611434565b6040516107bf919061211f565b60405180910390f35b3480156107d457600080fd5b506107dd611454565b6040516107ea9190611f2c565b60405180910390f35b3480156107ff57600080fd5b5061081a600480360381019061081591906120c4565b61145a565b005b34801561082857600080fd5b50610843600480360381019061083e91906125eb565b611616565b6040516108509190611f2c565b60405180910390f35b34801561086557600080fd5b50610880600480360381019061087b9190611fb9565b61169d565b005b61088a611723565b600073ffffffffffffffffffffffffffffffffffffffff168173ffffffffffffffffffffffffffffffffffffffff16036108f9576040517f08c379a00000000000000000000000000000000000000000000000000000000081526004016108f090612677565b60405180910390fd5b80600860006101000a81548173ffffffffffffffffffffffffffffffffffffffff021916908373ffffffffffffffffffffffffffffffffffffffff16021790555050565b60606003805461094c906126c6565b80601f0160208091040260200160405190810160405280929190818152602001828054610978906126c6565b80156109c55780601f1061099a576101008083540402835291602001916109c5565b820191906000526020600020905b8154815290600101906020018083116109a857829003601f168201915b5050505050905090565b6000806109da6117aa565b90506109e78185856117b2565b600191505092915050565b6000600254905090565b600080600a60009054906101000a900473ffffffffffffffffffffffffffffffffffffffff1673ffffffffffffffffffffffffffffffffffffffff16638e15f4736040518163ffffffff1660e01b8152600401602060405180830381865afa158015610a6c573d6000803e3d6000fd5b505050506040513d601f19601f82011682018060405250810190610a90919061270c565b90508083610a9e9190612797565b915050919050565b600080610ab16117aa565b9050610abe8582856117c4565b610ac9858585611859565b60019150509392505050565b600a60009054906101000a900473ffffffffffffffffffffffffffffffffffffffff1681565b60006006905090565b8060008111610b48576040517f08c379a0000000000000000000000000000000000000000000000000000000008152600401610b3f90612814565b60405180910390fd5b610b52338361194d565b3373ffffffffffffffffffffffffffffffffffffffff167f1d455e87d0f0a6f8817774697a52d99b9729f0d89f265edda43225901879f016858585604051610b9c93929190612834565b60405180910390a250505050565b60065481565b610bb8611723565b8060008111610bfc576040517f08c379a0000000000000000000000000000000000000000000000000000000008152600401610bf390612814565b60405180910390fd5b610c0683836119cf565b8273ffffffffffffffffffffffffffffffffffffffff167f30385c845b448a36257a6a1716e6ad2e1bc2cbe333cde1e69fe849ad6511adfe83604051610c4c9190611f2c565b60405180910390a2505050565b8060008111610c9d576040517f08c379a0000000000000000000000000000000000000000000000000000000008152600401610c9490612814565b60405180910390fd5b610ca7338361194d565b3373ffffffffffffffffffffffffffffffffffffffff167f696de425f79f4a40bc6d2122ca50507f0efbeabbff86a84871b7196ab8ea8df783604051610ced9190611f2c565b60405180910390a25050565b610d01611723565b6000600a60009054906101000a900473ffffffffffffffffffffffffffffffffffffffff1673ffffffffffffffffffffffffffffffffffffffff16638e15f4736040518163ffffffff1660e01b8152600401602060405180830381865afa158015610d70573d6000803e3d6000fd5b505050506040513d601f19601f82011682018060405250810190610d94919061270c565b90508068056bc75e2d63100000610dab9190612797565b60068190555050565b8060008111610df8576040517f08c379a0000000000000000000000000000000000000000000000000000000008152600401610def90612814565b60405180910390fd5b610e03338484611859565b8273ffffffffffffffffffffffffffffffffffffffff163373ffffffffffffffffffffffffffffffffffffffff167ec0112f943b14c182e370def18a2095ec100afaf552ee18e2b62c3da48cf64a84604051610e5f9190611f2c565b60405180910390a3505050565b6000610e773061104b565b905090565b600860009054906101000a900473ffffffffffffffffffffffffffffffffffffffff1673ffffffffffffffffffffffffffffffffffffffff163373ffffffffffffffffffffffffffffffffffffffff1614610f0c576040517f08c379a0000000000000000000000000000000000000000000000000000000008152600401610f03906128c5565b60405180910390fd5b600754811015610f51576040517f08c379a0000000000000000000000000000000000000000000000000000000008152600401610f4890612931565b60405180910390fd5b610f5b30826119cf565b50565b610f66611723565b8060068190555050565b60136020528060005260406000206000915054906101000a900460ff1681565b610f98611723565b600073ffffffffffffffffffffffffffffffffffffffff168173ffffffffffffffffffffffffffffffffffffffff1603611007576040517f08c379a0000000000000000000000000000000000000000000000000000000008152600401610ffe90612677565b60405180910390fd5b80600960006101000a81548173ffffffffffffffffffffffffffffffffffffffff021916908373ffffffffffffffffffffffffffffffffffffffff16021790555050565b60008060008373ffffffffffffffffffffffffffffffffffffffff1673ffffffffffffffffffffffffffffffffffffffff168152602001908152602001600020549050919050565b61109b611723565b6110a56000611a51565b565b6110af611723565b6001601360008373ffffffffffffffffffffffffffffffffffffffff1673ffffffffffffffffffffffffffffffffffffffff16815260200190815260200160002060006101000a81548160ff02191690831515021790555050565b611112611723565b60405180610100016040528089815260200188815260200187815260200186815260200185815260200184815260200183815260200182815250600b60008201518160000190816111639190612af3565b5060208201518160010190816111799190612af3565b50604082015181600201908161118f9190612af3565b5060608201518160030190816111a59190612af3565b5060808201518160040190816111bb9190612af3565b5060a08201518160050190816111d19190612af3565b5060c08201518160060190816111e79190612af3565b5060e08201518160070190816111fd9190612af3565b509050505050505050505050565b6000600560009054906101000a900473ffffffffffffffffffffffffffffffffffffffff16905090565b61123d611723565b6001601460008373ffffffffffffffffffffffffffffffffffffffff1673ffffffffffffffffffffffffffffffffffffffff16815260200190815260200160002060006101000a81548160ff02191690831515021790555050565b6060600480546112a7906126c6565b80601f01602080910402602001604051908101604052809291908181526020018280546112d3906126c6565b80156113205780601f106112f557610100808354040283529160200191611320565b820191906000526020600020905b81548152906001019060200180831161130357829003601f168201915b5050505050905090565b60008160008111611370576040517f08c379a000000000000000000000000000000000000000000000000000000000815260040161136790612814565b60405180910390fd5b6000600654905080846113839190612bc5565b61138c3361104b565b10156113cd576040517f08c379a00000000000000000000000000000000000000000000000000000000081526004016113c490612c45565b60405180910390fd5b6113d8338686611859565b61140533600960009054906101000a900473ffffffffffffffffffffffffffffffffffffffff1683611859565b60019250505092915050565b60008061141c6117aa565b9050611429818585611859565b600191505092915050565b60146020528060005260406000206000915054906101000a900460ff1681565b60075481565b806000811161149e576040517f08c379a000000000000000000000000000000000000000000000000000000000815260040161149590612814565b60405180910390fd5b601460008473ffffffffffffffffffffffffffffffffffffffff1673ffffffffffffffffffffffffffffffffffffffff16815260200190815260200160002060009054906101000a900460ff161561152b576040517f08c379a000000000000000000000000000000000000000000000000000000000815260040161152290612cb1565b60405180910390fd5b601360008473ffffffffffffffffffffffffffffffffffffffff1673ffffffffffffffffffffffffffffffffffffffff16815260200190815260200160002060009054906101000a900460ff166115b7576040517f08c379a00000000000000000000000000000000000000000000000000000000081526004016115ae90612d1d565b60405180910390fd5b6115c1338361194d565b3373ffffffffffffffffffffffffffffffffffffffff167f2e7f8a64aa3240292c0adfa332e1e8945dd31589fcb0bce2721fa21c69b1390f8484604051611609929190612d3d565b60405180910390a2505050565b6000600160008473ffffffffffffffffffffffffffffffffffffffff1673ffffffffffffffffffffffffffffffffffffffff16815260200190815260200160002060008373ffffffffffffffffffffffffffffffffffffffff1673ffffffffffffffffffffffffffffffffffffffff16815260200190815260200160002054905092915050565b6116a5611723565b600073ffffffffffffffffffffffffffffffffffffffff168173ffffffffffffffffffffffffffffffffffffffff16036117175760006040517f1e4fbdf700000000000000000000000000000000000000000000000000000000815260040161170e91906125d0565b60405180910390fd5b61172081611a51565b50565b61172b6117aa565b73ffffffffffffffffffffffffffffffffffffffff1661174961120b565b73ffffffffffffffffffffffffffffffffffffffff16146117a85761176c6117aa565b6040517f118cdaa700000000000000000000000000000000000000000000000000000000815260040161179f91906125d0565b60405180910390fd5b565b600033905090565b6117bf8383836001611b17565b505050565b60006117d08484611616565b90507fffffffffffffffffffffffffffffffffffffffffffffffffffffffffffffffff8110156118535781811015611843578281836040517ffb8f41b200000000000000000000000000000000000000000000000000000000815260040161183a93929190612d66565b60405180910390fd5b61185284848484036000611b17565b5b50505050565b600073ffffffffffffffffffffffffffffffffffffffff168373ffffffffffffffffffffffffffffffffffffffff16036118cb5760006040517f96c6fd1e0000000000000000000000000000000000000000000000000000000081526004016118c291906125d0565b60405180910390fd5b600073ffffffffffffffffffffffffffffffffffffffff168273ffffffffffffffffffffffffffffffffffffffff160361193d5760006040517fec442f0500000000000000000000000000000000000000000000000000000000815260040161193491906125d0565b60405180910390fd5b611948838383611cee565b505050565b600073ffffffffffffffffffffffffffffffffffffffff168273ffffffffffffffffffffffffffffffffffffffff16036119bf5760006040517f96c6fd1e0000000000000000000000000000000000000000000000000000000081526004016119b691906125d0565b60405180910390fd5b6119cb82600083611cee565b5050565b600073ffffffffffffffffffffffffffffffffffffffff168273ffffffffffffffffffffffffffffffffffffffff1603611a415760006040517fec442f05000000000000000000000000000000000000000000000000000000008152600401611a3891906125d0565b60405180910390fd5b611a4d60008383611cee565b5050565b6000600560009054906101000a900473ffffffffffffffffffffffffffffffffffffffff16905081600560006101000a81548173ffffffffffffffffffffffffffffffffffffffff021916908373ffffffffffffffffffffffffffffffffffffffff1602179055508173ffffffffffffffffffffffffffffffffffffffff168173ffffffffffffffffffffffffffffffffffffffff167f8be0079c531659141344cd1fd0a4f28419497f9722a3daafe3b4186f6b6457e060405160405180910390a35050565b600073ffffffffffffffffffffffffffffffffffffffff168473ffffffffffffffffffffffffffffffffffffffff1603611b895760006040517fe602df05000000000000000000000000000000000000000000000000000000008152600401611b8091906125d0565b60405180910390fd5b600073ffffffffffffffffffffffffffffffffffffffff168373ffffffffffffffffffffffffffffffffffffffff1603611bfb5760006040517f94280d62000000000000000000000000000000000000000000000000000000008152600401611bf291906125d0565b60405180910390fd5b81600160008673ffffffffffffffffffffffffffffffffffffffff1673ffffffffffffffffffffffffffffffffffffffff16815260200190815260200160002060008573ffffffffffffffffffffffffffffffffffffffff1673ffffffffffffffffffffffffffffffffffffffff168152602001908152602001600020819055508015611ce8578273ffffffffffffffffffffffffffffffffffffffff168473ffffffffffffffffffffffffffffffffffffffff167f8c5be1e5ebec7d5bd14f71427d1e84f3dd0314c0f7b2291e5b200ac8c7c3b92584604051611cdf9190611f2c565b60405180910390a35b50505050565b600073ffffffffffffffffffffffffffffffffffffffff168373ffffffffffffffffffffffffffffffffffffffff1603611d40578060026000828254611d349190612bc5565b92505081905550611e13565b60008060008573ffffffffffffffffffffffffffffffffffffffff1673ffffffffffffffffffffffffffffffffffffffff16815260200190815260200160002054905081811015611dcc578381836040517fe450d38c000000000000000000000000000000000000000000000000000000008152600401611dc393929190612d66565b60405180910390fd5b8181036000808673ffffffffffffffffffffffffffffffffffffffff1673ffffffffffffffffffffffffffffffffffffffff16815260200190815260200160002081905550505b600073ffffffffffffffffffffffffffffffffffffffff168273ffffffffffffffffffffffffffffffffffffffff1603611e5c5780600260008282540392505081905550611ea9565b806000808473ffffffffffffffffffffffffffffffffffffffff1673ffffffffffffffffffffffffffffffffffffffff168152602001908152602001600020600082825401925050819055505b8173ffffffffffffffffffffffffffffffffffffffff168373ffffffffffffffffffffffffffffffffffffffff167fddf252ad1be2c89b69c2b068fc378daa952ba7f163c4a11628f55a4df523b3ef83604051611f069190611f2c565b60405180910390a3505050565b6000819050919050565b611f2681611f13565b82525050565b6000602082019050611f416000830184611f1d565b92915050565b6000604051905090565b600080fd5b600080fd5b600073ffffffffffffffffffffffffffffffffffffffff82169050919050565b6000611f8682611f5b565b9050919050565b611f9681611f7b565b8114611fa157600080fd5b50565b600081359050611fb381611f8d565b92915050565b600060208284031215611fcf57611fce611f51565b5b6000611fdd84828501611fa4565b91505092915050565b600081519050919050565b600082825260208201905092915050565b60005b83811015612020578082015181840152602081019050612005565b60008484015250505050565b6000601f19601f8301169050919050565b600061204882611fe6565b6120528185611ff1565b9350612062818560208601612002565b61206b8161202c565b840191505092915050565b60006020820190508181036000830152612090818461203d565b905092915050565b6120a181611f13565b81146120ac57600080fd5b50565b6000813590506120be81612098565b92915050565b600080604083850312156120db576120da611f51565b5b60006120e985828601611fa4565b92505060206120fa858286016120af565b9150509250929050565b60008115159050919050565b61211981612104565b82525050565b60006020820190506121346000830184612110565b92915050565b6000602082840312156121505761214f611f51565b5b600061215e848285016120af565b91505092915050565b6000806000606084860312156121805761217f611f51565b5b600061218e86828701611fa4565b935050602061219f86828701611fa4565b92505060406121b0868287016120af565b9150509250925092565b6000819050919050565b60006121df6121da6121d584611f5b565b6121ba565b611f5b565b9050919050565b60006121f1826121c4565b9050919050565b6000612203826121e6565b9050919050565b612213816121f8565b82525050565b600060208201905061222e600083018461220a565b92915050565b600060ff82169050919050565b61224a81612234565b82525050565b60006020820190506122656000830184612241565b92915050565b600080fd5b600080fd5b7f4e487b7100000000000000000000000000000000000000000000000000000000600052604160045260246000fd5b6122ad8261202c565b810181811067ffffffffffffffff821117156122cc576122cb612275565b5b80604052505050565b60006122df611f47565b90506122eb82826122a4565b919050565b600067ffffffffffffffff82111561230b5761230a612275565b5b6123148261202c565b9050602081019050919050565b82818337600083830152505050565b600061234361233e846122f0565b6122d5565b90508281526020810184848401111561235f5761235e612270565b5b61236a848285612321565b509392505050565b600082601f8301126123875761238661226b565b5b8135612397848260208601612330565b91505092915050565b6000806000606084860312156123b9576123b8611f51565b5b600084013567ffffffffffffffff8111156123d7576123d6611f56565b5b6123e386828701612372565b935050602084013567ffffffffffffffff81111561240457612403611f56565b5b61241086828701612372565b9250506040612421868287016120af565b9150509250925092565b600080600080600080600080610100898b03121561244c5761244b611f51565b5b600089013567ffffffffffffffff81111561246a57612469611f56565b5b6124768b828c01612372565b985050602089013567ffffffffffffffff81111561249757612496611f56565b5b6124a38b828c01612372565b975050604089013567ffffffffffffffff8111156124c4576124c3611f56565b5b6124d08b828c01612372565b965050606089013567ffffffffffffffff8111156124f1576124f0611f56565b5b6124fd8b828c01612372565b955050608089013567ffffffffffffffff81111561251e5761251d611f56565b5b61252a8b828c01612372565b94505060a089013567ffffffffffffffff81111561254b5761254a611f56565b5b6125578b828c01612372565b93505060c089013567ffffffffffffffff81111561257857612577611f56565b5b6125848b828c01612372565b92505060e089013567ffffffffffffffff8111156125a5576125a4611f56565b5b6125b18b828c01612372565b9150509295985092959890939650565b6125ca81611f7b565b82525050565b60006020820190506125e560008301846125c1565b92915050565b6000806040838503121561260257612601611f51565b5b600061261085828601611fa4565b925050602061262185828601611fa4565b9150509250929050565b7f496e76616c696420616464726573730000000000000000000000000000000000600082015250565b6000612661600f83611ff1565b915061266c8261262b565b602082019050919050565b6000602082019050818103600083015261269081612654565b9050919050565b7f4e487b7100000000000000000000000000000000000000000000000000000000600052602260045260246000fd5b600060028204905060018216806126de57607f821691505b6020821081036126f1576126f0612697565b5b50919050565b60008151905061270681612098565b92915050565b60006020828403121561272257612721611f51565b5b6000612730848285016126f7565b91505092915050565b7f4e487b7100000000000000000000000000000000000000000000000000000000600052601260045260246000fd5b7f4e487b7100000000000000000000000000000000000000000000000000000000600052601160045260246000fd5b60006127a282611f13565b91506127ad83611f13565b9250826127bd576127bc612739565b5b828204905092915050565b7f416d6f756e74206d757374206265203e20300000000000000000000000000000600082015250565b60006127fe601283611ff1565b9150612809826127c8565b602082019050919050565b6000602082019050818103600083015261282d816127f1565b9050919050565b6000606082019050818103600083015261284e818661203d565b90508181036020830152612862818561203d565b90506128716040830184611f1d565b949350505050565b7f4f6e6c79206c697175696469747920706f6f6c20616c6c6f7765640000000000600082015250565b60006128af601b83611ff1565b91506128ba82612879565b602082019050919050565b600060208201905081810360008301526128de816128a2565b9050919050565b7f4d696e696d756d2024312c3030302c3030302072657175697265640000000000600082015250565b600061291b601b83611ff1565b9150612926826128e5565b602082019050919050565b6000602082019050818103600083015261294a8161290e565b9050919050565b60008190508160005260206000209050919050565b60006020601f8301049050919050565b600082821b905092915050565b6000600883026129b37fffffffffffffffffffffffffffffffffffffffffffffffffffffffffffffffff82612976565b6129bd8683612976565b95508019841693508086168417925050509392505050565b60006129f06129eb6129e684611f13565b6121ba565b611f13565b9050919050565b6000819050919050565b612a0a836129d5565b612a1e612a16826129f7565b848454612983565b825550505050565b600090565b612a33612a26565b612a3e818484612a01565b505050565b5b81811015612a6257612a57600082612a2b565b600181019050612a44565b5050565b601f821115612aa757612a7881612951565b612a8184612966565b81016020851015612a90578190505b612aa4612a9c85612966565b830182612a43565b50505b505050565b600082821c905092915050565b6000612aca60001984600802612aac565b1980831691505092915050565b6000612ae38383612ab9565b9150826002028217905092915050565b612afc82611fe6565b67ffffffffffffffff811115612b1557612b14612275565b5b612b1f82546126c6565b612b2a828285612a66565b600060209050601f831160018114612b5d5760008415612b4b578287015190505b612b558582612ad7565b865550612bbd565b601f198416612b6b86612951565b60005b82811015612b9357848901518255600182019150602085019450602081019050612b6e565b86831015612bb05784890151612bac601f891682612ab9565b8355505b6001600288020188555050505b505050505050565b6000612bd082611f13565b9150612bdb83611f13565b9250828201905080821115612bf357612bf2612768565b5b92915050565b7f496e73756666696369656e742062616c616e6365207769746820666565000000600082015250565b6000612c2f601d83611ff1565b9150612c3a82612bf9565b602082019050919050565b60006020820190508181036000830152612c5e81612c22565b9050919050565b7f4d656d65636f696e20697320626c6f636b656400000000000000000000000000600082015250565b6000612c9b601383611ff1565b9150612ca682612c65565b602082019050919050565b60006020820190508181036000830152612cca81612c8e565b9050919050565b7f546f6b656e206e6f7420617070726f7665640000000000000000000000000000600082015250565b6000612d07601283611ff1565b9150612d1282612cd1565b602082019050919050565b60006020820190508181036000830152612d3681612cfa565b9050919050565b6000604082019050612d5260008301856125c1565b612d5f6020830184611f1d565b9392505050565b6000606082019050612d7b60008301866125c1565b612d886020830185611f1d565b612d956040830184611f1d565b94935050505056fea2646970667358221220ec3aac08650daa702bbc7a0964fa102c9d93d94bab879bdbc4325f70b126627864736f6c63430008140033556e6976657273616c20537461626c65636f696e204f726967696e616c20446f6c6c6172",
  "linkReferences": {},
  "deployedLinkReferences": {}
}