{
  "_format": "hh-sol-artifact-1",
  "contractName": "URC20",
  "sourceName": "contracts/URC20.sol",
  "abi": [
    {
      "inputs": [
        {
          "internalType": "address",
          "name": "_priceOracle",
          "type": "address"
        }
      ],
      "stateMutability": "nonpayable",
      "type": "constructor"
    },
    {
      "inputs": [
        {
          "internalType": "address",
          "name": "spender",
          "type": "address"
        },
        {
          "internalType": "uint256",
          "name": "allowance",
          "type": "uint256"
        },
        {
          "internalType": "uint256",
          "name": "needed",
          "type": "uint256"
        }
      ],
      "name": "ERC20InsufficientAllowance",
      "type": "error"
    },
    {
      "inputs": [
        {
          "internalType": "address",
          "name": "sender",
          "type": "address"
        },
        {
          "internalType": "uint256",
          "name": "balance",
          "type": "uint256"
        },
        {
          "internalType": "uint256",
          "name": "needed",
          "type": "uint256"
        }
      ],
      "name": "ERC20InsufficientBalance",
      "type": "error"
    },
    {
      "inputs": [
        {
          "internalType": "address",
          "name": "approver",
          "type": "address"
        }
      ],
      "name": "ERC20InvalidApprover",
      "type": "error"
    },
    {
      "inputs": [
        {
          "internalType": "address",
          "name": "receiver",
          "type": "address"
        }
      ],
      "name": "ERC20InvalidReceiver",
      "type": "error"
    },
    {
      "inputs": [
        {
          "internalType": "address",
          "name": "sender",
          "type": "address"
        }
      ],
      "name": "ERC20InvalidSender",
      "type": "error"
    },
    {
      "inputs": [
        {
          "internalType": "address",
          "name": "spender",
          "type": "address"
        }
      ],
      "name": "ERC20InvalidSpender",
      "type": "error"
    },
    {
      "inputs": [
        {
          "internalType": "address",
          "name": "owner",
          "type": "address"
        }
      ],
      "name": "OwnableInvalidOwner",
      "type": "error"
    },
    {
      "inputs": [
        {
          "internalType": "address",
          "name": "account",
          "type": "address"
        }
      ],
      "name": "OwnableUnauthorizedAccount",
      "type": "error"
    },
    {
      "anonymous": false,
      "inputs": [
        {
          "indexed": true,
          "internalType": "address",
          "name": "owner",
          "type": "address"
        },
        {
          "indexed": true,
          "internalType": "address",
          "name": "spender",
          "type": "address"
        },
        {
          "indexed": false,
          "internalType": "uint256",
          "name": "value",
          "type": "uint256"
        }
      ],
      "name": "Approval",
      "type": "event"
    },
    {
      "anonymous": false,
      "inputs": [
        {
          "indexed": true,
          "internalType": "address",
          "name": "from",
          "type": "address"
        },
        {
          "indexed": false,
          "internalType": "string",
          "name": "targetChain",
          "type": "string"
        },
        {
          "indexed": false,
          "internalType": "string",
          "name": "targetAddress",
          "type": "string"
        },
        {
          "indexed": false,
          "internalType": "uint256",
          "name": "amount",
          "type": "uint256"
        }
      ],
      "name": "Bridged",
      "type": "event"
    },
    {
      "anonymous": false,
      "inputs": [
        {
          "indexed": true,
          "internalType": "address",
          "name": "from",
          "type": "address"
        },
        {
          "indexed": false,
          "internalType": "uint256",
          "name": "amount",
          "type": "uint256"
        }
      ],
      "name": "Burned",
      "type": "event"
    },
    {
      "anonymous": false,
      "inputs": [
        {
          "indexed": true,
          "internalType": "address",
          "name": "to",
          "type": "address"
        },
        {
          "indexed": false,
          "internalType": "uint256",
          "name": "amount",
          "type": "uint256"
        }
      ],
      "name": "Minted",
      "type": "event"
    },
    {
      "anonymous": false,
      "inputs": [
        {
          "indexed": true,
          "internalType": "address",
          "name": "previousOwner",
          "type": "address"
        },
        {
          "indexed": true,
          "internalType": "address",
          "name": "newOwner",
          "type": "address"
        }
      ],
      "name": "OwnershipTransferred",
      "type": "event"
    },
    {
      "anonymous": false,
      "inputs": [
        {
          "indexed": true,
          "internalType": "address",
          "name": "from",
          "type": "address"
        },
        {
          "indexed": true,
          "internalType": "address",
          "name": "to",
          "type": "address"
        },
        {
          "indexed": false,
          "internalType": "uint256",
          "name": "amount",
          "type": "uint256"
        }
      ],
      "name": "P2PTransfer",
      "type": "event"
    },
    {
      "anonymous": false,
      "inputs": [
        {
          "indexed": true,
          "internalType": "address",
          "name": "sender",
          "type": "address"
        },
        {
          "indexed": false,
          "internalType": "uint256",
          "name": "amount",
          "type": "uint256"
        }
      ],
      "name": "Received",
      "type": "event"
    },
    {
      "anonymous": false,
      "inputs": [
        {
          "indexed": true,
          "internalType": "address",
          "name": "user",
          "type": "address"
        },
        {
          "indexed": false,
          "internalType": "address",
          "name": "toToken",
          "type": "address"
        },
        {
          "indexed": false,
          "internalType": "uint256",
          "name": "amount",
          "type": "uint256"
        }
      ],
      "name": "Swapped",
      "type": "event"
    },
    {
      "anonymous": false,
      "inputs": [
        {
          "indexed": true,
          "internalType": "address",
          "name": "from",
          "type": "address"
        },
        {
          "indexed": true,
          "internalType": "address",
          "name": "to",
          "type": "address"
        },
        {
          "indexed": false,
          "internalType": "uint256",
          "name": "value",
          "type": "uint256"
        }
      ],
      "name": "Transfer",
      "type": "event"
    },
    {
      "stateMutability": "payable",
      "type": "fallback"
    },
    {
      "inputs": [
        {
          "internalType": "uint256",
          "name": "amount",
          "type": "uint256"
        }
      ],
      "name": "addLiquidity",
      "outputs": [],
      "stateMutability": "nonpayable",
      "type": "function"
    },
    {
      "inputs": [
        {
          "internalType": "address",
          "name": "owner",
          "type": "address"
        },
        {
          "internalType": "address",
          "name": "spender",
          "type": "address"
        }
      ],
      "name": "allowance",
      "outputs": [
        {
          "internalType": "uint256",
          "name": "",
          "type": "uint256"
        }
      ],
      "stateMutability": "view",
      "type": "function"
    },
    {
      "inputs": [
        {
          "internalType": "address",
          "name": "spender",
          "type": "address"
        },
        {
          "internalType": "uint256",
          "name": "value",
          "type": "uint256"
        }
      ],
      "name": "approve",
      "outputs": [
        {
          "internalType": "bool",
          "name": "",
          "type": "bool"
        }
      ],
      "stateMutability": "nonpayable",
      "type": "function"
    },
    {
      "inputs": [
        {
          "internalType": "address",
          "name": "token",
          "type": "address"
        }
      ],
      "name": "approveToken",
      "outputs": [],
      "stateMutability": "nonpayable",
      "type": "function"
    },
    {
      "inputs": [
        {
          "internalType": "address",
          "name": "",
          "type": "address"
        }
      ],
      "name": "approvedTokens",
      "outputs": [
        {
          "internalType": "bool",
          "name": "",
          "type": "bool"
        }
      ],
      "stateMutability": "view",
      "type": "function"
    },
    {
      "inputs": [
        {
          "internalType": "address",
          "name": "account",
          "type": "address"
        }
      ],
      "name": "balanceOf",
      "outputs": [
        {
          "internalType": "uint256",
          "name": "",
          "type": "uint256"
        }
      ],
      "stateMutability": "view",
      "type": "function"
    },
    {
      "inputs": [
        {
          "internalType": "address",
          "name": "token",
          "type": "address"
        }
      ],
      "name": "blockMemecoin",
      "outputs": [],
      "stateMutability": "nonpayable",
      "type": "function"
    },
    {
      "inputs": [
        {
          "internalType": "address",
          "name": "",
          "type": "address"
        }
      ],
      "name": "blockedMemecoins",
      "outputs": [
        {
          "internalType": "bool",
          "name": "",
          "type": "bool"
        }
      ],
      "stateMutability": "view",
      "type": "function"
    },
    {
      "inputs": [
        {
          "internalType": "string",
          "name": "targetChain",
          "type": "string"
        },
        {
          "internalType": "string",
          "name": "targetAddress",
          "type": "string"
        },
        {
          "internalType": "uint256",
          "name": "amount",
          "type": "uint256"
        }
      ],
      "name": "bridge",
      "outputs": [],
      "stateMutability": "nonpayable",
      "type": "function"
    },
    {
      "inputs": [
        {
          "internalType": "uint256",
          "name": "amount",
          "type": "uint256"
        }
      ],
      "name": "burn",
      "outputs": [],
      "stateMutability": "nonpayable",
      "type": "function"
    },
    {
      "inputs": [
        {
          "internalType": "uint256",
          "name": "amountUZS",
          "type": "uint256"
        }
      ],
      "name": "convertCurrency",
      "outputs": [
        {
          "internalType": "uint256",
          "name": "",
          "type": "uint256"
        }
      ],
      "stateMutability": "view",
      "type": "function"
    },
    {
      "inputs": [],
      "name": "decimals",
      "outputs": [
        {
          "internalType": "uint8",
          "name": "",
          "type": "uint8"
        }
      ],
      "stateMutability": "pure",
      "type": "function"
    },
    {
      "inputs": [],
      "name": "gasFeeInUSOD",
      "outputs": [
        {
          "internalType": "uint256",
          "name": "",
          "type": "uint256"
        }
      ],
      "stateMutability": "view",
      "type": "function"
    },
    {
      "inputs": [],
      "name": "getLiquidityPoolBalance",
      "outputs": [
        {
          "internalType": "uint256",
          "name": "",
          "type": "uint256"
        }
      ],
      "stateMutability": "view",
      "type": "function"
    },
    {
      "inputs": [],
      "name": "liquidityThreshold",
      "outputs": [
        {
          "internalType": "uint256",
          "name": "",
          "type": "uint256"
        }
      ],
      "stateMutability": "view",
      "type": "function"
    },
    {
      "inputs": [
        {
          "internalType": "address",
          "name": "to",
          "type": "address"
        },
        {
          "internalType": "uint256",
          "name": "amount",
          "type": "uint256"
        }
      ],
      "name": "mint",
      "outputs": [],
      "stateMutability": "nonpayable",
      "type": "function"
    },
    {
      "inputs": [],
      "name": "name",
      "outputs": [
        {
          "internalType": "string",
          "name": "",
          "type": "string"
        }
      ],
      "stateMutability": "view",
      "type": "function"
    },
    {
      "inputs": [],
      "name": "owner",
      "outputs": [
        {
          "internalType": "address",
          "name": "",
          "type": "address"
        }
      ],
      "stateMutability": "view",
      "type": "function"
    },
    {
      "inputs": [
        {
          "internalType": "address",
          "name": "to",
          "type": "address"
        },
        {
          "internalType": "uint256",
          "name": "amount",
          "type": "uint256"
        }
      ],
      "name": "p2pTransfer",
      "outputs": [],
      "stateMutability": "nonpayable",
      "type": "function"
    },
    {
      "inputs": [],
      "name": "priceOracle",
      "outputs": [
        {
          "internalType": "contract IPriceOracle",
          "name": "",
          "type": "address"
        }
      ],
      "stateMutability": "view",
      "type": "function"
    },
    {
      "inputs": [],
      "name": "renounceOwnership",
      "outputs": [],
      "stateMutability": "nonpayable",
      "type": "function"
    },
    {
      "inputs": [
        {
          "internalType": "address",
          "name": "newCollector",
          "type": "address"
        }
      ],
      "name": "setGasCollector",
      "outputs": [],
      "stateMutability": "nonpayable",
      "type": "function"
    },
    {
      "inputs": [
        {
          "internalType": "uint256",
          "name": "newGasFee",
          "type": "uint256"
        }
      ],
      "name": "setGasFee",
      "outputs": [],
      "stateMutability": "nonpayable",
      "type": "function"
    },
    {
      "inputs": [
        {
          "internalType": "address",
          "name": "newPool",
          "type": "address"
        }
      ],
      "name": "setLiquidityPool",
      "outputs": [],
      "stateMutability": "nonpayable",
      "type": "function"
    },
    {
      "inputs": [
        {
          "internalType": "address",
          "name": "toToken",
          "type": "address"
        },
        {
          "internalType": "uint256",
          "name": "amount",
          "type": "uint256"
        }
      ],
      "name": "swap",
      "outputs": [],
      "stateMutability": "nonpayable",
      "type": "function"
    },
    {
      "inputs": [],
      "name": "symbol",
      "outputs": [
        {
          "internalType": "string",
          "name": "",
          "type": "string"
        }
      ],
      "stateMutability": "view",
      "type": "function"
    },
    {
      "inputs": [],
      "name": "totalSupply",
      "outputs": [
        {
          "internalType": "uint256",
          "name": "",
          "type": "uint256"
        }
      ],
      "stateMutability": "view",
      "type": "function"
    },
    {
      "inputs": [
        {
          "internalType": "address",
          "name": "to",
          "type": "address"
        },
        {
          "internalType": "uint256",
          "name": "value",
          "type": "uint256"
        }
      ],
      "name": "transfer",
      "outputs": [
        {
          "internalType": "bool",
          "name": "",
          "type": "bool"
        }
      ],
      "stateMutability": "nonpayable",
      "type": "function"
    },
    {
      "inputs": [
        {
          "internalType": "address",
          "name": "from",
          "type": "address"
        },
        {
          "internalType": "address",
          "name": "to",
          "type": "address"
        },
        {
          "internalType": "uint256",
          "name": "value",
          "type": "uint256"
        }
      ],
      "name": "transferFrom",
      "outputs": [
        {
          "internalType": "bool",
          "name": "",
          "type": "bool"
        }
      ],
      "stateMutability": "nonpayable",
      "type": "function"
    },
    {
      "inputs": [
        {
          "internalType": "address",
          "name": "newOwner",
          "type": "address"
        }
      ],
      "name": "transferOwnership",
      "outputs": [],
      "stateMutability": "nonpayable",
      "type": "function"
    },
    {
      "inputs": [
        {
          "internalType": "address",
          "name": "recipient",
          "type": "address"
        },
        {
          "internalType": "uint256",
          "name": "amount",
          "type": "uint256"
        }
      ],
      "name": "transferWithGasFee",
      "outputs": [
        {
          "internalType": "bool",
          "name": "",
          "type": "bool"
        }
      ],
      "stateMutability": "nonpayable",
      "type": "function"
    },
    {
      "inputs": [
        {
          "internalType": "string",
          "name": "_fullName",
          "type": "string"
        },
        {
          "internalType": "string",
          "name": "_bankName",
          "type": "string"
        },
        {
          "internalType": "string",
          "name": "_accountNumber",
          "type": "string"
        },
        {
          "internalType": "string",
          "name": "_mfo",
          "type": "string"
        },
        {
          "internalType": "string",
          "name": "_inn",
          "type": "string"
        },
        {
          "internalType": "string",
          "name": "_cardNumber",
          "type": "string"
        },
        {
          "internalType": "string",
          "name": "_cardType",
          "type": "string"
        },
        {
          "internalType": "string",
          "name": "_accountCurrency",
          "type": "string"
        }
      ],
      "name": "updateBankDetails",
      "outputs": [],
      "stateMutability": "nonpayable",
      "type": "function"
    },
    {
      "inputs": [],
      "name": "updateGasFeeFromOracle",
      "outputs": [],
      "stateMutability": "nonpayable",
      "type": "function"
    },
    {
      "stateMutability": "payable",
      "type": "receive"
    }
  ],
  "bytecode": "0x60a06040527b056c062c202b73b6c52e630ee27f59924b5eb71f800000000000000060809081525064174876e80060065564e8d4a5100060075573dd6342cd45ce437382c00523cc6f22968bdd21b8600860006101000a81548173ffffffffffffffffffffffffffffffffffffffff021916908373ffffffffffffffffffffffffffffffffffffffff16021790555073dd6342cd45ce437382c00523cc6f22968bdd21b8600960006101000a81548173ffffffffffffffffffffffffffffffffffffffff021916908373ffffffffffffffffffffffffffffffffffffffff160217905550348015620000f057600080fd5b5060405162003baf38038062003baf833981810160405281019062000116919062000904565b3360405180606001604052806024815260200162003b8b602491396040518060400160405280600481526020017f55534f4400000000000000000000000000000000000000000000000000000000815250816003908162000178919062000bb0565b5080600490816200018a919062000bb0565b505050600073ffffffffffffffffffffffffffffffffffffffff168173ffffffffffffffffffffffffffffffffffffffff1603620002025760006040517f1e4fbdf7000000000000000000000000000000000000000000000000000000008152600401620001f9919062000ca8565b60405180910390fd5b62000213816200051760201b60201c565b506200022833608051620005dd60201b60201c565b80600a60006101000a81548173ffffffffffffffffffffffffffffffffffffffff021916908373ffffffffffffffffffffffffffffffffffffffff1602179055506040518061010001604052806040518060400160405280601181526020017f44494c4d55524f54205348414b49524f5600000000000000000000000000000081525081526020016040518060400160405280600d81526020017f536d6172742062616e6b20414a0000000000000000000000000000000000000081525081526020016040518060400160405280601481526020017f323331313830303036303030303131393932303000000000000000000000000081525081526020016040518060400160405280600581526020017f303131393900000000000000000000000000000000000000000000000000000081525081526020016040518060400160405280600981526020017f333130313233383232000000000000000000000000000000000000000000000081525081526020016040518060400160405280601081526020017f343036373037303030333334373437380000000000000000000000000000000081525081526020016040518060400160405280600981526020017f48554d4f2d56697361000000000000000000000000000000000000000000000081525081526020016040518060400160405280600381526020017f555a530000000000000000000000000000000000000000000000000000000000815250815250600b600082015181600001908162000464919062000bb0565b5060208201518160010190816200047c919062000bb0565b50604082015181600201908162000494919062000bb0565b506060820151816003019081620004ac919062000bb0565b506080820151816004019081620004c4919062000bb0565b5060a0820151816005019081620004dc919062000bb0565b5060c0820151816006019081620004f4919062000bb0565b5060e08201518160070190816200050c919062000bb0565b509050505062000d9a565b6000600560009054906101000a900473ffffffffffffffffffffffffffffffffffffffff16905081600560006101000a81548173ffffffffffffffffffffffffffffffffffffffff021916908373ffffffffffffffffffffffffffffffffffffffff1602179055508173ffffffffffffffffffffffffffffffffffffffff168173ffffffffffffffffffffffffffffffffffffffff167f8be0079c531659141344cd1fd0a4f28419497f9722a3daafe3b4186f6b6457e060405160405180910390a35050565b600073ffffffffffffffffffffffffffffffffffffffff168273ffffffffffffffffffffffffffffffffffffffff1603620006525760006040517fec442f0500000000000000000000000000000000000000000000000000000000815260040162000649919062000ca8565b60405180910390fd5b62000666600083836200066a60201b60201c565b5050565b600073ffffffffffffffffffffffffffffffffffffffff168373ffffffffffffffffffffffffffffffffffffffff1603620006c0578060026000828254620006b3919062000cf4565b9250508190555062000796565b60008060008573ffffffffffffffffffffffffffffffffffffffff1673ffffffffffffffffffffffffffffffffffffffff168152602001908152602001600020549050818110156200074f578381836040517fe450d38c000000000000000000000000000000000000000000000000000000008152600401620007469392919062000d40565b60405180910390fd5b8181036000808673ffffffffffffffffffffffffffffffffffffffff1673ffffffffffffffffffffffffffffffffffffffff16815260200190815260200160002081905550505b600073ffffffffffffffffffffffffffffffffffffffff168273ffffffffffffffffffffffffffffffffffffffff1603620007e157806002600082825403925050819055506200082e565b806000808473ffffffffffffffffffffffffffffffffffffffff1673ffffffffffffffffffffffffffffffffffffffff168152602001908152602001600020600082825401925050819055505b8173ffffffffffffffffffffffffffffffffffffffff168373ffffffffffffffffffffffffffffffffffffffff167fddf252ad1be2c89b69c2b068fc378daa952ba7f163c4a11628f55a4df523b3ef836040516200088d919062000d7d565b60405180910390a3505050565b600080fd5b600073ffffffffffffffffffffffffffffffffffffffff82169050919050565b6000620008cc826200089f565b9050919050565b620008de81620008bf565b8114620008ea57600080fd5b50565b600081519050620008fe81620008d3565b92915050565b6000602082840312156200091d576200091c6200089a565b5b60006200092d84828501620008ed565b91505092915050565b600081519050919050565b7f4e487b7100000000000000000000000000000000000000000000000000000000600052604160045260246000fd5b7f4e487b7100000000000000000000000000000000000000000000000000000000600052602260045260246000fd5b60006002820490506001821680620009b857607f821691505b602082108103620009ce57620009cd62000970565b5b50919050565b60008190508160005260206000209050919050565b60006020601f8301049050919050565b600082821b905092915050565b60006008830262000a387fffffffffffffffffffffffffffffffffffffffffffffffffffffffffffffffff82620009f9565b62000a448683620009f9565b95508019841693508086168417925050509392505050565b6000819050919050565b6000819050919050565b600062000a9162000a8b62000a858462000a5c565b62000a66565b62000a5c565b9050919050565b6000819050919050565b62000aad8362000a70565b62000ac562000abc8262000a98565b84845462000a06565b825550505050565b600090565b62000adc62000acd565b62000ae981848462000aa2565b505050565b5b8181101562000b115762000b0560008262000ad2565b60018101905062000aef565b5050565b601f82111562000b605762000b2a81620009d4565b62000b3584620009e9565b8101602085101562000b45578190505b62000b5d62000b5485620009e9565b83018262000aee565b50505b505050565b600082821c905092915050565b600062000b856000198460080262000b65565b1980831691505092915050565b600062000ba0838362000b72565b9150826002028217905092915050565b62000bbb8262000936565b67ffffffffffffffff81111562000bd75762000bd662000941565b5b62000be382546200099f565b62000bf082828562000b15565b600060209050601f83116001811462000c28576000841562000c13578287015190505b62000c1f858262000b92565b86555062000c8f565b601f19841662000c3886620009d4565b60005b8281101562000c625784890151825560018201915060208501945060208101905062000c3b565b8683101562000c82578489015162000c7e601f89168262000b72565b8355505b6001600288020188555050505b505050505050565b62000ca281620008bf565b82525050565b600060208201905062000cbf600083018462000c97565b92915050565b7f4e487b7100000000000000000000000000000000000000000000000000000000600052601160045260246000fd5b600062000d018262000a5c565b915062000d0e8362000a5c565b925082820190508082111562000d295762000d2862000cc5565b5b92915050565b62000d3a8162000a5c565b82525050565b600060608201905062000d57600083018662000c97565b62000d66602083018562000d2f565b62000d75604083018462000d2f565b949350505050565b600060208201905062000d94600083018462000d2f565b92915050565b608051612dd862000db360003960005050612dd86000f3fe6080604052600436106101f25760003560e01c8063678edca31161010d5780638f6f341e116100a0578063b54eaa171161006f578063b54eaa171461078b578063c9688086146107c8578063d004f0f7146107f3578063dd62ed3e1461081c578063f2fde38b1461085957610247565b80638f6f341e146106bd57806395d89b41146106e657806398af626914610711578063a9059cbb1461074e57610247565b8063715018a6116100dc578063715018a61461062957806380b2edd8146106405780638da362e3146106695780638da5cb5b1461069257610247565b8063678edca31461055d5780636d1ea3fa146105865780636f27cf64146105c357806370a08231146105ec57610247565b806331f6ef55116101855780634994ae9a116101545780634994ae9a146104c95780634d36cd15146104e05780634fcf9f711461050957806351c6590a1461053457610247565b806331f6ef5514610423578063360b37221461044c57806340c10f191461047757806342966c68146104a057610247565b80631eb2e987116101c15780631eb2e9871461035357806323b872dd146103905780632630c12f146103cd578063313ce567146103f857610247565b8063018770201461029757806306fdde03146102c0578063095ea7b3146102eb57806318160ddd1461032857610247565b36610247573373ffffffffffffffffffffffffffffffffffffffff167f88a5966d370b9919b20f3e2c13ff65706f196a4e32cc2c12bf57088f885258743460405161023d9190611f31565b60405180910390a2005b3373ffffffffffffffffffffffffffffffffffffffff167f88a5966d370b9919b20f3e2c13ff65706f196a4e32cc2c12bf57088f885258743460405161028d9190611f31565b60405180910390a2005b3480156102a357600080fd5b506102be60048036038101906102b99190611fbe565b610882565b005b3480156102cc57600080fd5b506102d561093d565b6040516102e2919061207b565b60405180910390f35b3480156102f757600080fd5b50610312600480360381019061030d91906120c9565b6109cf565b60405161031f9190612124565b60405180910390f35b34801561033457600080fd5b5061033d6109f2565b60405161034a9190611f31565b60405180910390f35b34801561035f57600080fd5b5061037a6004803603810190610375919061213f565b6109fc565b6040516103879190611f31565b60405180910390f35b34801561039c57600080fd5b506103b760048036038101906103b2919061216c565b610aa6565b6040516103c49190612124565b60405180910390f35b3480156103d957600080fd5b506103e2610ad5565b6040516103ef919061221e565b60405180910390f35b34801561040457600080fd5b5061040d610afb565b60405161041a9190612255565b60405180910390f35b34801561042f57600080fd5b5061044a600480360381019061044591906123a5565b610b04565b005b34801561045857600080fd5b50610461610baa565b60405161046e9190611f31565b60405180910390f35b34801561048357600080fd5b5061049e600480360381019061049991906120c9565b610bb0565b005b3480156104ac57600080fd5b506104c760048036038101906104c2919061213f565b610c59565b005b3480156104d557600080fd5b506104de610cf9565b005b3480156104ec57600080fd5b50610507600480360381019061050291906120c9565b610db9565b005b34801561051557600080fd5b5061051e610e71565b60405161052b9190611f31565b60405180910390f35b34801561054057600080fd5b5061055b6004803603810190610556919061213f565b610e81565b005b34801561056957600080fd5b50610584600480360381019061057f919061213f565b610f63565b005b34801561059257600080fd5b506105ad60048036038101906105a89190611fbe565b610f75565b6040516105ba9190612124565b60405180910390f35b3480156105cf57600080fd5b506105ea60048036038101906105e59190611fbe565b610f95565b005b3480156105f857600080fd5b50610613600480360381019061060e9190611fbe565b611050565b6040516106209190611f31565b60405180910390f35b34801561063557600080fd5b5061063e611098565b005b34801561064c57600080fd5b5061066760048036038101906106629190611fbe565b6110ac565b005b34801561067557600080fd5b50610690600480360381019061068b9190612430565b61110f565b005b34801561069e57600080fd5b506106a7611210565b6040516106b491906125d5565b60405180910390f35b3480156106c957600080fd5b506106e460048036038101906106df9190611fbe565b61123a565b005b3480156106f257600080fd5b506106fb61129d565b604051610708919061207b565b60405180910390f35b34801561071d57600080fd5b50610738600480360381019061073391906120c9565b61132f565b6040516107459190612124565b60405180910390f35b34801561075a57600080fd5b50610775600480360381019061077091906120c9565b611416565b6040516107829190612124565b60405180910390f35b34801561079757600080fd5b506107b260048036038101906107ad9190611fbe565b611439565b6040516107bf9190612124565b60405180910390f35b3480156107d457600080fd5b506107dd611459565b6040516107ea9190611f31565b60405180910390f35b3480156107ff57600080fd5b5061081a600480360381019061081591906120c9565b61145f565b005b34801561082857600080fd5b50610843600480360381019061083e91906125f0565b61161b565b6040516108509190611f31565b60405180910390f35b34801561086557600080fd5b50610880600480360381019061087b9190611fbe565b6116a2565b005b61088a611728565b600073ffffffffffffffffffffffffffffffffffffffff168173ffffffffffffffffffffffffffffffffffffffff16036108f9576040517f08c379a00000000000000000000000000000000000000000000000000000000081526004016108f09061267c565b60405180910390fd5b80600860006101000a81548173ffffffffffffffffffffffffffffffffffffffff021916908373ffffffffffffffffffffffffffffffffffffffff16021790555050565b60606003805461094c906126cb565b80601f0160208091040260200160405190810160405280929190818152602001828054610978906126cb565b80156109c55780601f1061099a576101008083540402835291602001916109c5565b820191906000526020600020905b8154815290600101906020018083116109a857829003601f168201915b5050505050905090565b6000806109da6117af565b90506109e78185856117b7565b600191505092915050565b6000600254905090565b600080600a60009054906101000a900473ffffffffffffffffffffffffffffffffffffffff1673ffffffffffffffffffffffffffffffffffffffff16638e15f4736040518163ffffffff1660e01b8152600401602060405180830381865afa158015610a6c573d6000803e3d6000fd5b505050506040513d601f19601f82011682018060405250810190610a909190612711565b90508083610a9e919061279c565b915050919050565b600080610ab16117af565b9050610abe8582856117c9565b610ac985858561185e565b60019150509392505050565b600a60009054906101000a900473ffffffffffffffffffffffffffffffffffffffff1681565b60006006905090565b8060008111610b48576040517f08c379a0000000000000000000000000000000000000000000000000000000008152600401610b3f90612819565b60405180910390fd5b610b523383611952565b3373ffffffffffffffffffffffffffffffffffffffff167f1d455e87d0f0a6f8817774697a52d99b9729f0d89f265edda43225901879f016858585604051610b9c93929190612839565b60405180910390a250505050565b60065481565b610bb8611728565b8060008111610bfc576040517f08c379a0000000000000000000000000000000000000000000000000000000008152600401610bf390612819565b60405180910390fd5b610c0683836119d4565b8273ffffffffffffffffffffffffffffffffffffffff167f30385c845b448a36257a6a1716e6ad2e1bc2cbe333cde1e69fe849ad6511adfe83604051610c4c9190611f31565b60405180910390a2505050565b8060008111610c9d576040517f08c379a0000000000000000000000000000000000000000000000000000000008152600401610c9490612819565b60405180910390fd5b610ca73383611952565b3373ffffffffffffffffffffffffffffffffffffffff167f696de425f79f4a40bc6d2122ca50507f0efbeabbff86a84871b7196ab8ea8df783604051610ced9190611f31565b60405180910390a25050565b610d01611728565b6000600a60009054906101000a900473ffffffffffffffffffffffffffffffffffffffff1673ffffffffffffffffffffffffffffffffffffffff16638e15f4736040518163ffffffff1660e01b8152600401602060405180830381865afa158015610d70573d6000803e3d6000fd5b505050506040513d601f19601f82011682018060405250810190610d949190612711565b9050806d04ee2d6d415b85acef8100000000610db0919061279c565b60068190555050565b8060008111610dfd576040517f08c379a0000000000000000000000000000000000000000000000000000000008152600401610df490612819565b60405180910390fd5b610e0833848461185e565b8273ffffffffffffffffffffffffffffffffffffffff163373ffffffffffffffffffffffffffffffffffffffff167ec0112f943b14c182e370def18a2095ec100afaf552ee18e2b62c3da48cf64a84604051610e649190611f31565b60405180910390a3505050565b6000610e7c30611050565b905090565b600860009054906101000a900473ffffffffffffffffffffffffffffffffffffffff1673ffffffffffffffffffffffffffffffffffffffff163373ffffffffffffffffffffffffffffffffffffffff1614610f11576040517f08c379a0000000000000000000000000000000000000000000000000000000008152600401610f08906128ca565b60405180910390fd5b600754811015610f56576040517f08c379a0000000000000000000000000000000000000000000000000000000008152600401610f4d90612936565b60405180910390fd5b610f6030826119d4565b50565b610f6b611728565b8060068190555050565b60136020528060005260406000206000915054906101000a900460ff1681565b610f9d611728565b600073ffffffffffffffffffffffffffffffffffffffff168173ffffffffffffffffffffffffffffffffffffffff160361100c576040517f08c379a00000000000000000000000000000000000000000000000000000000081526004016110039061267c565b60405180910390fd5b80600960006101000a81548173ffffffffffffffffffffffffffffffffffffffff021916908373ffffffffffffffffffffffffffffffffffffffff16021790555050565b60008060008373ffffffffffffffffffffffffffffffffffffffff1673ffffffffffffffffffffffffffffffffffffffff168152602001908152602001600020549050919050565b6110a0611728565b6110aa6000611a56565b565b6110b4611728565b6001601360008373ffffffffffffffffffffffffffffffffffffffff1673ffffffffffffffffffffffffffffffffffffffff16815260200190815260200160002060006101000a81548160ff02191690831515021790555050565b611117611728565b60405180610100016040528089815260200188815260200187815260200186815260200185815260200184815260200183815260200182815250600b60008201518160000190816111689190612af8565b50602082015181600101908161117e9190612af8565b5060408201518160020190816111949190612af8565b5060608201518160030190816111aa9190612af8565b5060808201518160040190816111c09190612af8565b5060a08201518160050190816111d69190612af8565b5060c08201518160060190816111ec9190612af8565b5060e08201518160070190816112029190612af8565b509050505050505050505050565b6000600560009054906101000a900473ffffffffffffffffffffffffffffffffffffffff16905090565b611242611728565b6001601460008373ffffffffffffffffffffffffffffffffffffffff1673ffffffffffffffffffffffffffffffffffffffff16815260200190815260200160002060006101000a81548160ff02191690831515021790555050565b6060600480546112ac906126cb565b80601f01602080910402602001604051908101604052809291908181526020018280546112d8906126cb565b80156113255780601f106112fa57610100808354040283529160200191611325565b820191906000526020600020905b81548152906001019060200180831161130857829003601f168201915b5050505050905090565b60008160008111611375576040517f08c379a000000000000000000000000000000000000000000000000000000000815260040161136c90612819565b60405180910390fd5b6000600654905080846113889190612bca565b61139133611050565b10156113d2576040517f08c379a00000000000000000000000000000000000000000000000000000000081526004016113c990612c4a565b60405180910390fd5b6113dd33868661185e565b61140a33600960009054906101000a900473ffffffffffffffffffffffffffffffffffffffff168361185e565b60019250505092915050565b6000806114216117af565b905061142e81858561185e565b600191505092915050565b60146020528060005260406000206000915054906101000a900460ff1681565b60075481565b80600081116114a3576040517f08c379a000000000000000000000000000000000000000000000000000000000815260040161149a90612819565b60405180910390fd5b601460008473ffffffffffffffffffffffffffffffffffffffff1673ffffffffffffffffffffffffffffffffffffffff16815260200190815260200160002060009054906101000a900460ff1615611530576040517f08c379a000000000000000000000000000000000000000000000000000000000815260040161152790612cb6565b60405180910390fd5b601360008473ffffffffffffffffffffffffffffffffffffffff1673ffffffffffffffffffffffffffffffffffffffff16815260200190815260200160002060009054906101000a900460ff166115bc576040517f08c379a00000000000000000000000000000000000000000000000000000000081526004016115b390612d22565b60405180910390fd5b6115c63383611952565b3373ffffffffffffffffffffffffffffffffffffffff167f2e7f8a64aa3240292c0adfa332e1e8945dd31589fcb0bce2721fa21c69b1390f848460405161160e929190612d42565b60405180910390a2505050565b6000600160008473ffffffffffffffffffffffffffffffffffffffff1673ffffffffffffffffffffffffffffffffffffffff16815260200190815260200160002060008373ffffffffffffffffffffffffffffffffffffffff1673ffffffffffffffffffffffffffffffffffffffff16815260200190815260200160002054905092915050565b6116aa611728565b600073ffffffffffffffffffffffffffffffffffffffff168173ffffffffffffffffffffffffffffffffffffffff160361171c5760006040517f1e4fbdf700000000000000000000000000000000000000000000000000000000815260040161171391906125d5565b60405180910390fd5b61172581611a56565b50565b6117306117af565b73ffffffffffffffffffffffffffffffffffffffff1661174e611210565b73ffffffffffffffffffffffffffffffffffffffff16146117ad576117716117af565b6040517f118cdaa70000000000000000000000000000000000000000000000000000000081526004016117a491906125d5565b60405180910390fd5b565b600033905090565b6117c48383836001611b1c565b505050565b60006117d5848461161b565b90507fffffffffffffffffffffffffffffffffffffffffffffffffffffffffffffffff8110156118585781811015611848578281836040517ffb8f41b200000000000000000000000000000000000000000000000000000000815260040161183f93929190612d6b565b60405180910390fd5b61185784848484036000611b1c565b5b50505050565b600073ffffffffffffffffffffffffffffffffffffffff168373ffffffffffffffffffffffffffffffffffffffff16036118d05760006040517f96c6fd1e0000000000000000000000000000000000000000000000000000000081526004016118c791906125d5565b60405180910390fd5b600073ffffffffffffffffffffffffffffffffffffffff168273ffffffffffffffffffffffffffffffffffffffff16036119425760006040517fec442f0500000000000000000000000000000000000000000000000000000000815260040161193991906125d5565b60405180910390fd5b61194d838383611cf3565b505050565b600073ffffffffffffffffffffffffffffffffffffffff168273ffffffffffffffffffffffffffffffffffffffff16036119c45760006040517f96c6fd1e0000000000000000000000000000000000000000000000000000000081526004016119bb91906125d5565b60405180910390fd5b6119d082600083611cf3565b5050565b600073ffffffffffffffffffffffffffffffffffffffff168273ffffffffffffffffffffffffffffffffffffffff1603611a465760006040517fec442f05000000000000000000000000000000000000000000000000000000008152600401611a3d91906125d5565b60405180910390fd5b611a5260008383611cf3565b5050565b6000600560009054906101000a900473ffffffffffffffffffffffffffffffffffffffff16905081600560006101000a81548173ffffffffffffffffffffffffffffffffffffffff021916908373ffffffffffffffffffffffffffffffffffffffff1602179055508173ffffffffffffffffffffffffffffffffffffffff168173ffffffffffffffffffffffffffffffffffffffff167f8be0079c531659141344cd1fd0a4f28419497f9722a3daafe3b4186f6b6457e060405160405180910390a35050565b600073ffffffffffffffffffffffffffffffffffffffff168473ffffffffffffffffffffffffffffffffffffffff1603611b8e5760006040517fe602df05000000000000000000000000000000000000000000000000000000008152600401611b8591906125d5565b60405180910390fd5b600073ffffffffffffffffffffffffffffffffffffffff168373ffffffffffffffffffffffffffffffffffffffff1603611c005760006040517f94280d62000000000000000000000000000000000000000000000000000000008152600401611bf791906125d5565b60405180910390fd5b81600160008673ffffffffffffffffffffffffffffffffffffffff1673ffffffffffffffffffffffffffffffffffffffff16815260200190815260200160002060008573ffffffffffffffffffffffffffffffffffffffff1673ffffffffffffffffffffffffffffffffffffffff168152602001908152602001600020819055508015611ced578273ffffffffffffffffffffffffffffffffffffffff168473ffffffffffffffffffffffffffffffffffffffff167f8c5be1e5ebec7d5bd14f71427d1e84f3dd0314c0f7b2291e5b200ac8c7c3b92584604051611ce49190611f31565b60405180910390a35b50505050565b600073ffffffffffffffffffffffffffffffffffffffff168373ffffffffffffffffffffffffffffffffffffffff1603611d45578060026000828254611d399190612bca565b92505081905550611e18565b60008060008573ffffffffffffffffffffffffffffffffffffffff1673ffffffffffffffffffffffffffffffffffffffff16815260200190815260200160002054905081811015611dd1578381836040517fe450d38c000000000000000000000000000000000000000000000000000000008152600401611dc893929190612d6b565b60405180910390fd5b8181036000808673ffffffffffffffffffffffffffffffffffffffff1673ffffffffffffffffffffffffffffffffffffffff16815260200190815260200160002081905550505b600073ffffffffffffffffffffffffffffffffffffffff168273ffffffffffffffffffffffffffffffffffffffff1603611e615780600260008282540392505081905550611eae565b806000808473ffffffffffffffffffffffffffffffffffffffff1673ffffffffffffffffffffffffffffffffffffffff168152602001908152602001600020600082825401925050819055505b8173ffffffffffffffffffffffffffffffffffffffff168373ffffffffffffffffffffffffffffffffffffffff167fddf252ad1be2c89b69c2b068fc378daa952ba7f163c4a11628f55a4df523b3ef83604051611f0b9190611f31565b60405180910390a3505050565b6000819050919050565b611f2b81611f18565b82525050565b6000602082019050611f466000830184611f22565b92915050565b6000604051905090565b600080fd5b600080fd5b600073ffffffffffffffffffffffffffffffffffffffff82169050919050565b6000611f8b82611f60565b9050919050565b611f9b81611f80565b8114611fa657600080fd5b50565b600081359050611fb881611f92565b92915050565b600060208284031215611fd457611fd3611f56565b5b6000611fe284828501611fa9565b91505092915050565b600081519050919050565b600082825260208201905092915050565b60005b8381101561202557808201518184015260208101905061200a565b60008484015250505050565b6000601f19601f8301169050919050565b600061204d82611feb565b6120578185611ff6565b9350612067818560208601612007565b61207081612031565b840191505092915050565b600060208201905081810360008301526120958184612042565b905092915050565b6120a681611f18565b81146120b157600080fd5b50565b6000813590506120c38161209d565b92915050565b600080604083850312156120e0576120df611f56565b5b60006120ee85828601611fa9565b92505060206120ff858286016120b4565b9150509250929050565b60008115159050919050565b61211e81612109565b82525050565b60006020820190506121396000830184612115565b92915050565b60006020828403121561215557612154611f56565b5b6000612163848285016120b4565b91505092915050565b60008060006060848603121561218557612184611f56565b5b600061219386828701611fa9565b93505060206121a486828701611fa9565b92505060406121b5868287016120b4565b9150509250925092565b6000819050919050565b60006121e46121df6121da84611f60565b6121bf565b611f60565b9050919050565b60006121f6826121c9565b9050919050565b6000612208826121eb565b9050919050565b612218816121fd565b82525050565b6000602082019050612233600083018461220f565b92915050565b600060ff82169050919050565b61224f81612239565b82525050565b600060208201905061226a6000830184612246565b92915050565b600080fd5b600080fd5b7f4e487b7100000000000000000000000000000000000000000000000000000000600052604160045260246000fd5b6122b282612031565b810181811067ffffffffffffffff821117156122d1576122d061227a565b5b80604052505050565b60006122e4611f4c565b90506122f082826122a9565b919050565b600067ffffffffffffffff8211156123105761230f61227a565b5b61231982612031565b9050602081019050919050565b82818337600083830152505050565b6000612348612343846122f5565b6122da565b90508281526020810184848401111561236457612363612275565b5b61236f848285612326565b509392505050565b600082601f83011261238c5761238b612270565b5b813561239c848260208601612335565b91505092915050565b6000806000606084860312156123be576123bd611f56565b5b600084013567ffffffffffffffff8111156123dc576123db611f5b565b5b6123e886828701612377565b935050602084013567ffffffffffffffff81111561240957612408611f5b565b5b61241586828701612377565b9250506040612426868287016120b4565b9150509250925092565b600080600080600080600080610100898b03121561245157612450611f56565b5b600089013567ffffffffffffffff81111561246f5761246e611f5b565b5b61247b8b828c01612377565b985050602089013567ffffffffffffffff81111561249c5761249b611f5b565b5b6124a88b828c01612377565b975050604089013567ffffffffffffffff8111156124c9576124c8611f5b565b5b6124d58b828c01612377565b965050606089013567ffffffffffffffff8111156124f6576124f5611f5b565b5b6125028b828c01612377565b955050608089013567ffffffffffffffff81111561252357612522611f5b565b5b61252f8b828c01612377565b94505060a089013567ffffffffffffffff8111156125505761254f611f5b565b5b61255c8b828c01612377565b93505060c089013567ffffffffffffffff81111561257d5761257c611f5b565b5b6125898b828c01612377565b92505060e089013567ffffffffffffffff8111156125aa576125a9611f5b565b5b6125b68b828c01612377565b9150509295985092959890939650565b6125cf81611f80565b82525050565b60006020820190506125ea60008301846125c6565b92915050565b6000806040838503121561260757612606611f56565b5b600061261585828601611fa9565b925050602061262685828601611fa9565b9150509250929050565b7f496e76616c696420616464726573730000000000000000000000000000000000600082015250565b6000612666600f83611ff6565b915061267182612630565b602082019050919050565b6000602082019050818103600083015261269581612659565b9050919050565b7f4e487b7100000000000000000000000000000000000000000000000000000000600052602260045260246000fd5b600060028204905060018216806126e357607f821691505b6020821081036126f6576126f561269c565b5b50919050565b60008151905061270b8161209d565b92915050565b60006020828403121561272757612726611f56565b5b6000612735848285016126fc565b91505092915050565b7f4e487b7100000000000000000000000000000000000000000000000000000000600052601260045260246000fd5b7f4e487b7100000000000000000000000000000000000000000000000000000000600052601160045260246000fd5b60006127a782611f18565b91506127b283611f18565b9250826127c2576127c161273e565b5b828204905092915050565b7f416d6f756e74206d757374206265203e20300000000000000000000000000000600082015250565b6000612803601283611ff6565b915061280e826127cd565b602082019050919050565b60006020820190508181036000830152612832816127f6565b9050919050565b600060608201905081810360008301526128538186612042565b905081810360208301526128678185612042565b90506128766040830184611f22565b949350505050565b7f4f6e6c79206c697175696469747920706f6f6c20616c6c6f7765640000000000600082015250565b60006128b4601b83611ff6565b91506128bf8261287e565b602082019050919050565b600060208201905081810360008301526128e3816128a7565b9050919050565b7f4d696e696d756d2024312c3030302c3030302072657175697265640000000000600082015250565b6000612920601b83611ff6565b915061292b826128ea565b602082019050919050565b6000602082019050818103600083015261294f81612913565b9050919050565b60008190508160005260206000209050919050565b60006020601f8301049050919050565b600082821b905092915050565b6000600883026129b87fffffffffffffffffffffffffffffffffffffffffffffffffffffffffffffffff8261297b565b6129c2868361297b565b95508019841693508086168417925050509392505050565b60006129f56129f06129eb84611f18565b6121bf565b611f18565b9050919050565b6000819050919050565b612a0f836129da565b612a23612a1b826129fc565b848454612988565b825550505050565b600090565b612a38612a2b565b612a43818484612a06565b505050565b5b81811015612a6757612a5c600082612a30565b600181019050612a49565b5050565b601f821115612aac57612a7d81612956565b612a868461296b565b81016020851015612a95578190505b612aa9612aa18561296b565b830182612a48565b50505b505050565b600082821c905092915050565b6000612acf60001984600802612ab1565b1980831691505092915050565b6000612ae88383612abe565b9150826002028217905092915050565b612b0182611feb565b67ffffffffffffffff811115612b1a57612b1961227a565b5b612b2482546126cb565b612b2f828285612a6b565b600060209050601f831160018114612b625760008415612b50578287015190505b612b5a8582612adc565b865550612bc2565b601f198416612b7086612956565b60005b82811015612b9857848901518255600182019150602085019450602081019050612b73565b86831015612bb55784890151612bb1601f891682612abe565b8355505b6001600288020188555050505b505050505050565b6000612bd582611f18565b9150612be083611f18565b9250828201905080821115612bf857612bf761276d565b5b92915050565b7f496e73756666696369656e742062616c616e6365207769746820666565000000600082015250565b6000612c34601d83611ff6565b9150612c3f82612bfe565b602082019050919050565b60006020820190508181036000830152612c6381612c27565b9050919050565b7f4d656d65636f696e20697320626c6f636b656400000000000000000000000000600082015250565b6000612ca0601383611ff6565b9150612cab82612c6a565b602082019050919050565b60006020820190508181036000830152612ccf81612c93565b9050919050565b7f546f6b656e206e6f7420617070726f7665640000000000000000000000000000600082015250565b6000612d0c601283611ff6565b9150612d1782612cd6565b602082019050919050565b60006020820190508181036000830152612d3b81612cff565b9050919050565b6000604082019050612d5760008301856125c6565b612d646020830184611f22565b9392505050565b6000606082019050612d8060008301866125c6565b612d8d6020830185611f22565b612d9a6040830184611f22565b94935050505056fea264697066735822122083e5211778a18ba3929cc2eeb55b4a3ff6a752969dd7f021330d2d9bffe5ef7764736f6c63430008140033556e6976657273616c20537461626c65636f696e204f726967696e616c20446f6c6c6172",
  "linkReferences": {},
  "deployedLinkReferences": {}
}