{
  "_format": "hh-sol-artifact-1",
  "contractName": "TopAssetsRegistry",
  "sourceName": "contracts/TopAssetsRegistry.sol",
  "abi": [
    {
      "inputs": [],
      "stateMutability": "nonpayable",
      "type": "constructor"
    },
    {
      "inputs": [
        {
          "internalType": "address",
          "name": "owner",
          "type": "address"
        }
      ],
      "name": "OwnableInvalidOwner",
      "type": "error"
    },
    {
      "inputs": [
        {
          "internalType": "address",
          "name": "account",
          "type": "address"
        }
      ],
      "name": "OwnableUnauthorizedAccount",
      "type": "error"
    },
    {
      "anonymous": false,
      "inputs": [
        {
          "indexed": false,
          "internalType": "string",
          "name": "cex",
          "type": "string"
        }
      ],
      "name": "CEXListed",
      "type": "event"
    },
    {
      "anonymous": false,
      "inputs": [
        {
          "indexed": false,
          "internalType": "string",
          "name": "dex",
          "type": "string"
        }
      ],
      "name": "DEXListed",
      "type": "event"
    },
    {
      "anonymous": false,
      "inputs": [
        {
          "indexed": true,
          "internalType": "address",
          "name": "previousOwner",
          "type": "address"
        },
        {
          "indexed": true,
          "internalType": "address",
          "name": "newOwner",
          "type": "address"
        }
      ],
      "name": "OwnershipTransferred",
      "type": "event"
    },
    {
      "anonymous": false,
      "inputs": [
        {
          "indexed": false,
          "internalType": "string",
          "name": "token",
          "type": "string"
        }
      ],
      "name": "TokenListed",
      "type": "event"
    },
    {
      "inputs": [
        {
          "internalType": "string",
          "name": "cex",
          "type": "string"
        }
      ],
      "name": "addCEXAuto",
      "outputs": [],
      "stateMutability": "nonpayable",
      "type": "function"
    },
    {
      "inputs": [
        {
          "internalType": "string",
          "name": "dex",
          "type": "string"
        }
      ],
      "name": "addDEXAuto",
      "outputs": [],
      "stateMutability": "nonpayable",
      "type": "function"
    },
    {
      "inputs": [
        {
          "internalType": "string",
          "name": "token",
          "type": "string"
        }
      ],
      "name": "addTopTokenAuto",
      "outputs": [],
      "stateMutability": "nonpayable",
      "type": "function"
    },
    {
      "inputs": [],
      "name": "getTop100Tokens",
      "outputs": [
        {
          "internalType": "string[]",
          "name": "",
          "type": "string[]"
        }
      ],
      "stateMutability": "view",
      "type": "function"
    },
    {
      "inputs": [],
      "name": "getTopCEXs",
      "outputs": [
        {
          "internalType": "string[]",
          "name": "",
          "type": "string[]"
        }
      ],
      "stateMutability": "view",
      "type": "function"
    },
    {
      "inputs": [],
      "name": "getTopDEXs",
      "outputs": [
        {
          "internalType": "string[]",
          "name": "",
          "type": "string[]"
        }
      ],
      "stateMutability": "view",
      "type": "function"
    },
    {
      "inputs": [],
      "name": "initializeTop100Tokens",
      "outputs": [],
      "stateMutability": "nonpayable",
      "type": "function"
    },
    {
      "inputs": [],
      "name": "initializeTop50CEXs",
      "outputs": [],
      "stateMutability": "nonpayable",
      "type": "function"
    },
    {
      "inputs": [],
      "name": "initializeTop50DEXs",
      "outputs": [],
      "stateMutability": "nonpayable",
      "type": "function"
    },
    {
      "inputs": [],
      "name": "owner",
      "outputs": [
        {
          "internalType": "address",
          "name": "",
          "type": "address"
        }
      ],
      "stateMutability": "view",
      "type": "function"
    },
    {
      "inputs": [],
      "name": "renounceOwnership",
      "outputs": [],
      "stateMutability": "nonpayable",
      "type": "function"
    },
    {
      "inputs": [
        {
          "internalType": "uint256",
          "name": "",
          "type": "uint256"
        }
      ],
      "name": "top100Tokens",
      "outputs": [
        {
          "internalType": "string",
          "name": "",
          "type": "string"
        }
      ],
      "stateMutability": "view",
      "type": "function"
    },
    {
      "inputs": [
        {
          "internalType": "uint256",
          "name": "",
          "type": "uint256"
        }
      ],
      "name": "topCEXs",
      "outputs": [
        {
          "internalType": "string",
          "name": "",
          "type": "string"
        }
      ],
      "stateMutability": "view",
      "type": "function"
    },
    {
      "inputs": [
        {
          "internalType": "uint256",
          "name": "",
          "type": "uint256"
        }
      ],
      "name": "topDEXs",
      "outputs": [
        {
          "internalType": "string",
          "name": "",
          "type": "string"
        }
      ],
      "stateMutability": "view",
      "type": "function"
    },
    {
      "inputs": [
        {
          "internalType": "address",
          "name": "newOwner",
          "type": "address"
        }
      ],
      "name": "transferOwnership",
      "outputs": [],
      "stateMutability": "nonpayable",
      "type": "function"
    }
  ],
  "bytecode": "0x60806040523480156200001157600080fd5b5033600073ffffffffffffffffffffffffffffffffffffffff168173ffffffffffffffffffffffffffffffffffffffff1603620000885760006040517f1e4fbdf70000000000000000000000000000000000000000000000000000000081526004016200007f9190620001a9565b60405180910390fd5b6200009981620000a060201b60201c565b50620001c6565b60008060009054906101000a900473ffffffffffffffffffffffffffffffffffffffff169050816000806101000a81548173ffffffffffffffffffffffffffffffffffffffff021916908373ffffffffffffffffffffffffffffffffffffffff1602179055508173ffffffffffffffffffffffffffffffffffffffff168173ffffffffffffffffffffffffffffffffffffffff167f8be0079c531659141344cd1fd0a4f28419497f9722a3daafe3b4186f6b6457e060405160405180910390a35050565b600073ffffffffffffffffffffffffffffffffffffffff82169050919050565b6000620001918262000164565b9050919050565b620001a38162000184565b82525050565b6000602082019050620001c0600083018462000198565b92915050565b61437980620001d66000396000f3fe608060405234801561001057600080fd5b50600436106100f55760003560e01c806361c10cd0116100975780638da5cb5b116100665780638da5cb5b1461024c578063b3780b9f1461026a578063d9753f4314610274578063f2fde38b1461027e576100f5565b806361c10cd0146101d6578063715018a614610206578063830f1610146102105780638cdf99511461022e576100f5565b80633eb51b43116100d35780633eb51b43146101525780634bc580ff1461016e578063529fa3711461018a5780635e02894f146101a6576100f5565b8063165c0202146100fa57806322b539951461010457806335531fb014610122575b600080fd5b61010261029a565b005b61010c610ef3565b6040516101199190613c87565b60405180910390f35b61013c60048036038101906101379190613cf3565b610fcc565b6040516101499190613d6a565b60405180910390f35b61016c60048036038101906101679190613ec1565b611078565b005b61018860048036038101906101839190613ec1565b6110ef565b005b6101a4600480360381019061019f9190613ec1565b611166565b005b6101c060048036038101906101bb9190613cf3565b6111dd565b6040516101cd9190613d6a565b60405180910390f35b6101f060048036038101906101eb9190613cf3565b611289565b6040516101fd9190613d6a565b60405180910390f35b61020e611335565b005b610218611349565b6040516102259190613c87565b60405180910390f35b610236611422565b6040516102439190613c87565b60405180910390f35b6102546114fb565b6040516102619190613f4b565b60405180910390f35b610272611524565b005b61027c61217d565b005b61029860048036038101906102939190613f92565b61395c565b005b6102a26139e2565b60006040518061064001604052806040518060400160405280600781526020017f556e69737761700000000000000000000000000000000000000000000000000081525081526020016040518060400160405280600b81526020017f50616e63616b655377617000000000000000000000000000000000000000000081525081526020016040518060400160405280600581526020017f437572766500000000000000000000000000000000000000000000000000000081525081526020016040518060400160405280600981526020017f537573686953776170000000000000000000000000000000000000000000000081525081526020016040518060400160405280600881526020017f42616c616e63657200000000000000000000000000000000000000000000000081525081526020016040518060400160405280600581526020017f31696e636800000000000000000000000000000000000000000000000000000081525081526020016040518060400160405280600481526020017f444f444f0000000000000000000000000000000000000000000000000000000081525081526020016040518060400160405280600981526020017f4b7962657253776170000000000000000000000000000000000000000000000081525081526020016040518060400160405280600781526020017f5261796469756d0000000000000000000000000000000000000000000000000081525081526020016040518060400160405280600781526020017f4a7570697465720000000000000000000000000000000000000000000000000081525081526020016040518060400160405280600481526020017f4f7263610000000000000000000000000000000000000000000000000000000081525081526020016040518060400160405280600881526020017f54484f525377617000000000000000000000000000000000000000000000000081525081526020016040518060400160405280600581526020017f536162657200000000000000000000000000000000000000000000000000000081525081526020016040518060400160405280600981526020017f517569636b53776170000000000000000000000000000000000000000000000081525081526020016040518060400160405280600a81526020017f547261646572204a6f650000000000000000000000000000000000000000000081525081526020016040518060400160405280600a81526020017f53706f6f6b79537761700000000000000000000000000000000000000000000081525081526020016040518060400160405280600b81526020017f42656574686f76656e205800000000000000000000000000000000000000000081525081526020016040518060400160405280600781526020017f536f6c69646c790000000000000000000000000000000000000000000000000081525081526020016040518060400160405280600981526020017f56656c6f64726f6d65000000000000000000000000000000000000000000000081525081526020016040518060400160405280600681526020017f576f6d626174000000000000000000000000000000000000000000000000000081525081526020016040518060400160405280600781526020017f417065537761700000000000000000000000000000000000000000000000000081525081526020016040518060400160405280600981526020017f536869626173776170000000000000000000000000000000000000000000000081525081526020016040518060400160405280600881526020017f4d6176657269636b00000000000000000000000000000000000000000000000081525081526020016040518060400160405280600881526020017f466972656269726400000000000000000000000000000000000000000000000081525081526020016040518060400160405280600581526020017f574f4f466900000000000000000000000000000000000000000000000000000081525081526020016040518060400160405280600781526020017f43616d656c6f740000000000000000000000000000000000000000000000000081525081526020016040518060400160405280600681526020017f426973776170000000000000000000000000000000000000000000000000000081525081526020016040518060400160405280600481526020017f4b6c65780000000000000000000000000000000000000000000000000000000081525081526020016040518060400160405280600881526020017f426162795377617000000000000000000000000000000000000000000000000081525081526020016040518060400160405280600781526020017f4c4647537761700000000000000000000000000000000000000000000000000081525081526020016040518060400160405280600981526020017f4f70656e4f6365616e000000000000000000000000000000000000000000000081525081526020016040518060400160405280600881526020017f4d6573685377617000000000000000000000000000000000000000000000000081525081526020016040518060400160405280600981526020017f5a7962657273776170000000000000000000000000000000000000000000000081525081526020016040518060400160405280600a81526020017f4d6f6a69746f537761700000000000000000000000000000000000000000000081525081526020016040518060400160405280600a81526020017f4d4d2046696e616e63650000000000000000000000000000000000000000000081525081526020016040518060400160405280600a81526020017f42616b657279537761700000000000000000000000000000000000000000000081525081526020016040518060400160405280600a81526020017f427572676572537761700000000000000000000000000000000000000000000081525081526020016040518060400160405280600d81526020017f44654669436861696e204445580000000000000000000000000000000000000081525081526020016040518060400160405280600881526020017f4e6f6d697377617000000000000000000000000000000000000000000000000081525081526020016040518060400160405280600e81526020017f5465746879732046696e616e636500000000000000000000000000000000000081525081526020016040518060400160405280600781526020017f4d696e737761700000000000000000000000000000000000000000000000000081525081526020016040518060400160405280600781526020017f54696e796d616e0000000000000000000000000000000000000000000000000081525081526020016040518060400160405280600781526020017f556265737761700000000000000000000000000000000000000000000000000081525081526020016040518060400160405280600781526020017f57616e737761700000000000000000000000000000000000000000000000000081525081526020016040518060400160405280600981526020017f566970657253776170000000000000000000000000000000000000000000000081525081526020016040518060400160405280600781526020017f4e6574537761700000000000000000000000000000000000000000000000000081525081526020016040518060400160405280600b81526020017f5656532046696e616e636500000000000000000000000000000000000000000081525081526020016040518060400160405280600881526020017f59757a755377617000000000000000000000000000000000000000000000000081525081526020016040518060400160405280600981526020017f486f6e657973776170000000000000000000000000000000000000000000000081525081526020016040518060400160405280600a81526020017f53756e6461655377617000000000000000000000000000000000000000000000815250815250905060005b6032811015610eef576003828260328110610e5757610e56613fbf565b5b6020020151908060018154018082558091505060019003906000526020600020016000909190919091509081610e8d91906141fa565b507fea0e5d9907877feafe15e45f509afd493bf4397108ba06409c59618a143859bf828260328110610ec257610ec1613fbf565b5b6020020151604051610ed49190613d6a565b60405180910390a18080610ee7906142fb565b915050610e39565b5050565b60606002805480602002602001604051908101604052809291908181526020016000905b82821015610fc3578382906000526020600020018054610f369061401d565b80601f0160208091040260200160405190810160405280929190818152602001828054610f629061401d565b8015610faf5780601f10610f8457610100808354040283529160200191610faf565b820191906000526020600020905b815481529060010190602001808311610f9257829003601f168201915b505050505081526020019060010190610f17565b50505050905090565b60038181548110610fdc57600080fd5b906000526020600020016000915090508054610ff79061401d565b80601f01602080910402602001604051908101604052809291908181526020018280546110239061401d565b80156110705780601f1061104557610100808354040283529160200191611070565b820191906000526020600020905b81548152906001019060200180831161105357829003601f168201915b505050505081565b6110806139e2565b6002819080600181540180825580915050600190039060005260206000200160009091909190915090816110b491906141fa565b507fb8cc76273cae675facf942da39e6568a9bd43085abf2469f87b19c90f45a10d8816040516110e49190613d6a565b60405180910390a150565b6110f76139e2565b60038190806001815401808255809150506001900390600052602060002001600090919091909150908161112b91906141fa565b507fea0e5d9907877feafe15e45f509afd493bf4397108ba06409c59618a143859bf8160405161115b9190613d6a565b60405180910390a150565b61116e6139e2565b6001819080600181540180825580915050600190039060005260206000200160009091909190915090816111a291906141fa565b507f7ec4413b1678b4466dbbf4904c6b80d38ea6bb419df019d7cdfa0cd4dd5273e8816040516111d29190613d6a565b60405180910390a150565b600181815481106111ed57600080fd5b9060005260206000200160009150905080546112089061401d565b80601f01602080910402602001604051908101604052809291908181526020018280546112349061401d565b80156112815780601f1061125657610100808354040283529160200191611281565b820191906000526020600020905b81548152906001019060200180831161126457829003601f168201915b505050505081565b6002818154811061129957600080fd5b9060005260206000200160009150905080546112b49061401d565b80601f01602080910402602001604051908101604052809291908181526020018280546112e09061401d565b801561132d5780601f106113025761010080835404028352916020019161132d565b820191906000526020600020905b81548152906001019060200180831161131057829003601f168201915b505050505081565b61133d6139e2565b6113476000613a69565b565b60606003805480602002602001604051908101604052809291908181526020016000905b8282101561141957838290600052602060002001805461138c9061401d565b80601f01602080910402602001604051908101604052809291908181526020018280546113b89061401d565b80156114055780601f106113da57610100808354040283529160200191611405565b820191906000526020600020905b8154815290600101906020018083116113e857829003601f168201915b50505050508152602001906001019061136d565b50505050905090565b60606001805480602002602001604051908101604052809291908181526020016000905b828210156114f25783829060005260206000200180546114659061401d565b80601f01602080910402602001604051908101604052809291908181526020018280546114919061401d565b80156114de5780601f106114b3576101008083540402835291602001916114de565b820191906000526020600020905b8154815290600101906020018083116114c157829003601f168201915b505050505081526020019060010190611446565b50505050905090565b60008060009054906101000a900473ffffffffffffffffffffffffffffffffffffffff16905090565b61152c6139e2565b60006040518061064001604052806040518060400160405280600781526020017f42696e616e63650000000000000000000000000000000000000000000000000081525081526020016040518060400160405280600881526020017f436f696e6261736500000000000000000000000000000000000000000000000081525081526020016040518060400160405280600581526020017f427962697400000000000000000000000000000000000000000000000000000081525081526020016040518060400160405280600381526020017f4f4b58000000000000000000000000000000000000000000000000000000000081525081526020016040518060400160405280600681526020017f4b75436f696e000000000000000000000000000000000000000000000000000081525081526020016040518060400160405280600781526020017f476174652e696f0000000000000000000000000000000000000000000000000081525081526020016040518060400160405280600481526020017f4d4558430000000000000000000000000000000000000000000000000000000081525081526020016040518060400160405280600681526020017f4b72616b656e000000000000000000000000000000000000000000000000000081525081526020016040518060400160405280600881526020017f42697466696e657800000000000000000000000000000000000000000000000081525081526020016040518060400160405280600681526020017f426974676574000000000000000000000000000000000000000000000000000081525081526020016040518060400160405280600581526020017f48756f626900000000000000000000000000000000000000000000000000000081525081526020016040518060400160405280600881526020017f506f6c6f6e69657800000000000000000000000000000000000000000000000081525081526020016040518060400160405280600581526020017f557062697400000000000000000000000000000000000000000000000000000081525081526020016040518060400160405280600a81526020017f43727970746f2e636f6d0000000000000000000000000000000000000000000081525081526020016040518060400160405280600781526020017f42697468756d620000000000000000000000000000000000000000000000000081525081526020016040518060400160405280600581526020017f42696e675800000000000000000000000000000000000000000000000000000081525081526020016040518060400160405280600681526020017f5068656d6578000000000000000000000000000000000000000000000000000081525081526020016040518060400160405280600681526020017f50726f426974000000000000000000000000000000000000000000000000000081525081526020016040518060400160405280600881526020017f576869746542495400000000000000000000000000000000000000000000000081525081526020016040518060400160405280600681526020017f436f696e4578000000000000000000000000000000000000000000000000000081525081526020016040518060400160405280600881526020017f417363656e64455800000000000000000000000000000000000000000000000081525081526020016040518060400160405280600581526020017f4c42616e6b00000000000000000000000000000000000000000000000000000081525081526020016040518060400160405280600681526020017f58542e636f6d000000000000000000000000000000000000000000000000000081525081526020016040518060400160405280600981526020017f4469676946696e6578000000000000000000000000000000000000000000000081525081526020016040518060400160405280600781526020017f496e646f6461780000000000000000000000000000000000000000000000000081525081526020016040518060400160405280600681526020017f57617a697258000000000000000000000000000000000000000000000000000081525081526020016040518060400160405280600781526020017f4269744d6172740000000000000000000000000000000000000000000000000081525081526020016040518060400160405280600781526020017f4c41544f4b454e0000000000000000000000000000000000000000000000000081525081526020016040518060400160405280600681526020017f5a422e636f6d000000000000000000000000000000000000000000000000000081525081526020016040518060400160405280600981526020017f436f696e636865636b000000000000000000000000000000000000000000000081525081526020016040518060400160405280600781526020017f436f696e6f6e650000000000000000000000000000000000000000000000000081525081526020016040518060400160405280600681526020017f426974626e73000000000000000000000000000000000000000000000000000081525081526020016040518060400160405280600b81526020017f425443204d61726b65747300000000000000000000000000000000000000000081525081526020016040518060400160405280600781526020017f4e6f76614441580000000000000000000000000000000000000000000000000081525081526020016040518060400160405280600681526020017f4b6f72626974000000000000000000000000000000000000000000000000000081525081526020016040518060400160405280600381526020017f414158000000000000000000000000000000000000000000000000000000000081525081526020016040518060400160405280600581526020017f426974324300000000000000000000000000000000000000000000000000000081525081526020016040518060400160405280600881526020017f426974466c79657200000000000000000000000000000000000000000000000081525081526020016040518060400160405280600681526020017f4345582e696f000000000000000000000000000000000000000000000000000081525081526020016040518060400160405280600481526020017f45786d6f0000000000000000000000000000000000000000000000000000000081525081526020016040518060400160405280600781526020017f5061796269746f0000000000000000000000000000000000000000000000000081525081526020016040518060400160405280600581526020017f426974736f00000000000000000000000000000000000000000000000000000081525081526020016040518060400160405280600681526020017f466f78626974000000000000000000000000000000000000000000000000000081525081526020016040518060400160405280600881526020017f436f696e7362697400000000000000000000000000000000000000000000000081525081526020016040518060400160405280600581526020017f546964657800000000000000000000000000000000000000000000000000000081525081526020016040518060400160405280600481526020017f5a6169660000000000000000000000000000000000000000000000000000000081525081526020016040518060400160405280600681526020017f517569646178000000000000000000000000000000000000000000000000000081525081526020016040518060400160405280600781526020017f42697462616e6b0000000000000000000000000000000000000000000000000081525081526020016040518060400160405280600481526020017f5261696e0000000000000000000000000000000000000000000000000000000081525081526020016040518060400160405280600781526020017f4269746f50726f00000000000000000000000000000000000000000000000000815250815250905060005b60328110156121795760028282603281106120e1576120e0613fbf565b5b602002015190806001815401808255809150506001900390600052602060002001600090919091909150908161211791906141fa565b507fb8cc76273cae675facf942da39e6568a9bd43085abf2469f87b19c90f45a10d882826032811061214c5761214b613fbf565b5b602002015160405161215e9190613d6a565b60405180910390a18080612171906142fb565b9150506120c3565b5050565b6121856139e2565b600060405180610c8001604052806040518060400160405280600381526020017f425443000000000000000000000000000000000000000000000000000000000081525081526020016040518060400160405280600381526020017f455448000000000000000000000000000000000000000000000000000000000081525081526020016040518060400160405280600381526020017f424e42000000000000000000000000000000000000000000000000000000000081525081526020016040518060400160405280600481526020017f555344540000000000000000000000000000000000000000000000000000000081525081526020016040518060400160405280600381526020017f534f4c000000000000000000000000000000000000000000000000000000000081525081526020016040518060400160405280600381526020017f585250000000000000000000000000000000000000000000000000000000000081525081526020016040518060400160405280600481526020017f444f47450000000000000000000000000000000000000000000000000000000081525081526020016040518060400160405280600381526020017f544f4e000000000000000000000000000000000000000000000000000000000081525081526020016040518060400160405280600381526020017f414441000000000000000000000000000000000000000000000000000000000081525081526020016040518060400160405280600481526020017f415641580000000000000000000000000000000000000000000000000000000081525081526020016040518060400160405280600481526020017f534849420000000000000000000000000000000000000000000000000000000081525081526020016040518060400160405280600381526020017f444f54000000000000000000000000000000000000000000000000000000000081525081526020016040518060400160405280600381526020017f545258000000000000000000000000000000000000000000000000000000000081525081526020016040518060400160405280600481526020017f4c494e4b0000000000000000000000000000000000000000000000000000000081525081526020016040518060400160405280600481526020017f574254430000000000000000000000000000000000000000000000000000000081525081526020016040518060400160405280600581526020017f4d4154494300000000000000000000000000000000000000000000000000000081525081526020016040518060400160405280600381526020017f554e49000000000000000000000000000000000000000000000000000000000081525081526020016040518060400160405280600381526020017f4c5443000000000000000000000000000000000000000000000000000000000081525081526020016040518060400160405280600381526020017f494350000000000000000000000000000000000000000000000000000000000081525081526020016040518060400160405280600381526020017f444149000000000000000000000000000000000000000000000000000000000081525081526020016040518060400160405280600381526020017f424348000000000000000000000000000000000000000000000000000000000081525081526020016040518060400160405280600381526020017f415054000000000000000000000000000000000000000000000000000000000081525081526020016040518060400160405280600381526020017f455443000000000000000000000000000000000000000000000000000000000081525081526020016040518060400160405280600381526020017f535458000000000000000000000000000000000000000000000000000000000081525081526020016040518060400160405280600381526020017f494d58000000000000000000000000000000000000000000000000000000000081525081526020016040518060400160405280600381526020017f4f4b42000000000000000000000000000000000000000000000000000000000081525081526020016040518060400160405280600381526020017f46494c000000000000000000000000000000000000000000000000000000000081525081526020016040518060400160405280600381526020017f415242000000000000000000000000000000000000000000000000000000000081525081526020016040518060400160405280600481526020017f484241520000000000000000000000000000000000000000000000000000000081525081526020016040518060400160405280600481526020017f4e4541520000000000000000000000000000000000000000000000000000000081525081526020016040518060400160405280600381526020017f43524f000000000000000000000000000000000000000000000000000000000081525081526020016040518060400160405280600381526020017f4c444f000000000000000000000000000000000000000000000000000000000081525081526020016040518060400160405280600381526020017f54414f000000000000000000000000000000000000000000000000000000000081525081526020016040518060400160405280600381526020017f494e4a000000000000000000000000000000000000000000000000000000000081525081526020016040518060400160405280600381526020017f4d4b52000000000000000000000000000000000000000000000000000000000081525081526020016040518060400160405280600481526020017f524554480000000000000000000000000000000000000000000000000000000081525081526020016040518060400160405280600481526020017f52554e450000000000000000000000000000000000000000000000000000000081525081526020016040518060400160405280600581526020017f464455534400000000000000000000000000000000000000000000000000000081525081526020016040518060400160405280600481526020017f545553440000000000000000000000000000000000000000000000000000000081525081526020016040518060400160405280600381526020017f475254000000000000000000000000000000000000000000000000000000000081525081526020016040518060400160405280600481526020017f555344440000000000000000000000000000000000000000000000000000000081525081526020016040518060400160405280600281526020017f4f5000000000000000000000000000000000000000000000000000000000000081525081526020016040518060400160405280600381526020017f535549000000000000000000000000000000000000000000000000000000000081525081526020016040518060400160405280600381526020017f534e58000000000000000000000000000000000000000000000000000000000081525081526020016040518060400160405280600481526020017f465241580000000000000000000000000000000000000000000000000000000081525081526020016040518060400160405280600481526020017f504550450000000000000000000000000000000000000000000000000000000081525081526020016040518060400160405280600581526020017f4d414e544100000000000000000000000000000000000000000000000000000081525081526020016040518060400160405280600481526020017f45474c440000000000000000000000000000000000000000000000000000000081525081526020016040518060400160405280600381526020017f424742000000000000000000000000000000000000000000000000000000000081525081526020016040518060400160405280600381526020017f584c4d000000000000000000000000000000000000000000000000000000000081525081526020016040518060400160405280600381526020017f4b4153000000000000000000000000000000000000000000000000000000000081525081526020016040518060400160405280600581526020017f544845544100000000000000000000000000000000000000000000000000000081525081526020016040518060400160405280600281526020017f415200000000000000000000000000000000000000000000000000000000000081525081526020016040518060400160405280600381526020017f415853000000000000000000000000000000000000000000000000000000000081525081526020016040518060400160405280600481526020017f504158470000000000000000000000000000000000000000000000000000000081525081526020016040518060400160405280600381526020017f574f4f000000000000000000000000000000000000000000000000000000000081525081526020016040518060400160405280600481526020017f4f5244490000000000000000000000000000000000000000000000000000000081525081526020016040518060400160405280600581526020017f4a41534d5900000000000000000000000000000000000000000000000000000081525081526020016040518060400160405280600381526020017f514e54000000000000000000000000000000000000000000000000000000000081525081526020016040518060400160405280600381526020017f58545a000000000000000000000000000000000000000000000000000000000081525081526020016040518060400160405280600381526020017f454f53000000000000000000000000000000000000000000000000000000000081525081526020016040518060400160405280600481526020017f414156450000000000000000000000000000000000000000000000000000000081525081526020016040518060400160405280600381526020017f43485a000000000000000000000000000000000000000000000000000000000081525081526020016040518060400160405280600381526020017f425356000000000000000000000000000000000000000000000000000000000081525081526020016040518060400160405280600481526020017f53414e440000000000000000000000000000000000000000000000000000000081525081526020016040518060400160405280600481526020017f464c4f570000000000000000000000000000000000000000000000000000000081525081526020016040518060400160405280600381526020017f584543000000000000000000000000000000000000000000000000000000000081525081526020016040518060400160405280600481526020017f555344500000000000000000000000000000000000000000000000000000000081525081526020016040518060400160405280600481526020017f4d494e410000000000000000000000000000000000000000000000000000000081525081526020016040518060400160405280600481526020017f47414c410000000000000000000000000000000000000000000000000000000081525081526020016040518060400160405280600481526020017f4b4156410000000000000000000000000000000000000000000000000000000081525081526020016040518060400160405280600381526020017f545754000000000000000000000000000000000000000000000000000000000081525081526020016040518060400160405280600381526020017f435256000000000000000000000000000000000000000000000000000000000081525081526020016040518060400160405280600681526020017f50454e444c45000000000000000000000000000000000000000000000000000081525081526020016040518060400160405280600381526020017f5a4543000000000000000000000000000000000000000000000000000000000081525081526020016040518060400160405280600381526020017f454e53000000000000000000000000000000000000000000000000000000000081525081526020016040518060400160405280600281526020017f475400000000000000000000000000000000000000000000000000000000000081525081526020016040518060400160405280600481526020017f494f54410000000000000000000000000000000000000000000000000000000081525081526020016040518060400160405280600481526020017f445944580000000000000000000000000000000000000000000000000000000081525081526020016040518060400160405280600481526020017f584155540000000000000000000000000000000000000000000000000000000081525081526020016040518060400160405280600381526020017f46544d000000000000000000000000000000000000000000000000000000000081525081526020016040518060400160405280600481526020017f435350520000000000000000000000000000000000000000000000000000000081525081526020016040518060400160405280600481526020017f414e4b520000000000000000000000000000000000000000000000000000000081525081526020016040518060400160405280600381526020017f535850000000000000000000000000000000000000000000000000000000000081525081526020016040518060400160405280600481526020017f4e5852410000000000000000000000000000000000000000000000000000000081525081526020016040518060400160405280600381526020017f464c52000000000000000000000000000000000000000000000000000000000081525081526020016040518060400160405280600581526020017f31494e434800000000000000000000000000000000000000000000000000000081525081526020016040518060400160405280600381526020017f594649000000000000000000000000000000000000000000000000000000000081525081526020016040518060400160405280600481526020017f4c554e410000000000000000000000000000000000000000000000000000000081525081526020016040518060400160405280600481526020017f43454c520000000000000000000000000000000000000000000000000000000081525081526020016040518060400160405280600481526020017f414749580000000000000000000000000000000000000000000000000000000081525081526020016040518060400160405280600381526020017f554d41000000000000000000000000000000000000000000000000000000000081525081526020016040518060400160405280600381526020017f52564e000000000000000000000000000000000000000000000000000000000081525081526020016040518060400160405280600381526020017f5a494c000000000000000000000000000000000000000000000000000000000081525081526020016040518060400160405280600381526020017f424154000000000000000000000000000000000000000000000000000000000081525081526020016040518060400160405280600481526020017f4249434f0000000000000000000000000000000000000000000000000000000081525081526020016040518060400160405280600381526020017f534b4c000000000000000000000000000000000000000000000000000000000081525081526020016040518060400160405280600381526020017f454e4a000000000000000000000000000000000000000000000000000000000081525081526020016040518060400160405280600381526020017f4e4d52000000000000000000000000000000000000000000000000000000000081525081526020016040518060400160405280600381526020017f434b420000000000000000000000000000000000000000000000000000000000815250815250905060005b60648110156139585760018282606481106138c0576138bf613fbf565b5b60200201519080600181540180825580915050600190039060005260206000200160009091909190915090816138f691906141fa565b507f7ec4413b1678b4466dbbf4904c6b80d38ea6bb419df019d7cdfa0cd4dd5273e882826064811061392b5761392a613fbf565b5b602002015160405161393d9190613d6a565b60405180910390a18080613950906142fb565b9150506138a2565b5050565b6139646139e2565b600073ffffffffffffffffffffffffffffffffffffffff168173ffffffffffffffffffffffffffffffffffffffff16036139d65760006040517f1e4fbdf70000000000000000000000000000000000000000000000000000000081526004016139cd9190613f4b565b60405180910390fd5b6139df81613a69565b50565b6139ea613b2d565b73ffffffffffffffffffffffffffffffffffffffff16613a086114fb565b73ffffffffffffffffffffffffffffffffffffffff1614613a6757613a2b613b2d565b6040517f118cdaa7000000000000000000000000000000000000000000000000000000008152600401613a5e9190613f4b565b60405180910390fd5b565b60008060009054906101000a900473ffffffffffffffffffffffffffffffffffffffff169050816000806101000a81548173ffffffffffffffffffffffffffffffffffffffff021916908373ffffffffffffffffffffffffffffffffffffffff1602179055508173ffffffffffffffffffffffffffffffffffffffff168173ffffffffffffffffffffffffffffffffffffffff167f8be0079c531659141344cd1fd0a4f28419497f9722a3daafe3b4186f6b6457e060405160405180910390a35050565b600033905090565b600081519050919050565b600082825260208201905092915050565b6000819050602082019050919050565b600081519050919050565b600082825260208201905092915050565b60005b83811015613b9b578082015181840152602081019050613b80565b60008484015250505050565b6000601f19601f8301169050919050565b6000613bc382613b61565b613bcd8185613b6c565b9350613bdd818560208601613b7d565b613be681613ba7565b840191505092915050565b6000613bfd8383613bb8565b905092915050565b6000602082019050919050565b6000613c1d82613b35565b613c278185613b40565b935083602082028501613c3985613b51565b8060005b85811015613c755784840389528151613c568582613bf1565b9450613c6183613c05565b925060208a01995050600181019050613c3d565b50829750879550505050505092915050565b60006020820190508181036000830152613ca18184613c12565b905092915050565b6000604051905090565b600080fd5b600080fd5b6000819050919050565b613cd081613cbd565b8114613cdb57600080fd5b50565b600081359050613ced81613cc7565b92915050565b600060208284031215613d0957613d08613cb3565b5b6000613d1784828501613cde565b91505092915050565b600082825260208201905092915050565b6000613d3c82613b61565b613d468185613d20565b9350613d56818560208601613b7d565b613d5f81613ba7565b840191505092915050565b60006020820190508181036000830152613d848184613d31565b905092915050565b600080fd5b600080fd5b7f4e487b7100000000000000000000000000000000000000000000000000000000600052604160045260246000fd5b613dce82613ba7565b810181811067ffffffffffffffff82111715613ded57613dec613d96565b5b80604052505050565b6000613e00613ca9565b9050613e0c8282613dc5565b919050565b600067ffffffffffffffff821115613e2c57613e2b613d96565b5b613e3582613ba7565b9050602081019050919050565b82818337600083830152505050565b6000613e64613e5f84613e11565b613df6565b905082815260208101848484011115613e8057613e7f613d91565b5b613e8b848285613e42565b509392505050565b600082601f830112613ea857613ea7613d8c565b5b8135613eb8848260208601613e51565b91505092915050565b600060208284031215613ed757613ed6613cb3565b5b600082013567ffffffffffffffff811115613ef557613ef4613cb8565b5b613f0184828501613e93565b91505092915050565b600073ffffffffffffffffffffffffffffffffffffffff82169050919050565b6000613f3582613f0a565b9050919050565b613f4581613f2a565b82525050565b6000602082019050613f606000830184613f3c565b92915050565b613f6f81613f2a565b8114613f7a57600080fd5b50565b600081359050613f8c81613f66565b92915050565b600060208284031215613fa857613fa7613cb3565b5b6000613fb684828501613f7d565b91505092915050565b7f4e487b7100000000000000000000000000000000000000000000000000000000600052603260045260246000fd5b7f4e487b7100000000000000000000000000000000000000000000000000000000600052602260045260246000fd5b6000600282049050600182168061403557607f821691505b60208210810361404857614047613fee565b5b50919050565b60008190508160005260206000209050919050565b60006020601f8301049050919050565b600082821b905092915050565b6000600883026140b07fffffffffffffffffffffffffffffffffffffffffffffffffffffffffffffffff82614073565b6140ba8683614073565b95508019841693508086168417925050509392505050565b6000819050919050565b60006140f76140f26140ed84613cbd565b6140d2565b613cbd565b9050919050565b6000819050919050565b614111836140dc565b61412561411d826140fe565b848454614080565b825550505050565b600090565b61413a61412d565b614145818484614108565b505050565b5b818110156141695761415e600082614132565b60018101905061414b565b5050565b601f8211156141ae5761417f8161404e565b61418884614063565b81016020851015614197578190505b6141ab6141a385614063565b83018261414a565b50505b505050565b600082821c905092915050565b60006141d1600019846008026141b3565b1980831691505092915050565b60006141ea83836141c0565b9150826002028217905092915050565b61420382613b61565b67ffffffffffffffff81111561421c5761421b613d96565b5b614226825461401d565b61423182828561416d565b600060209050601f8311600181146142645760008415614252578287015190505b61425c85826141de565b8655506142c4565b601f1984166142728661404e565b60005b8281101561429a57848901518255600182019150602085019450602081019050614275565b868310156142b757848901516142b3601f8916826141c0565b8355505b6001600288020188555050505b505050505050565b7f4e487b7100000000000000000000000000000000000000000000000000000000600052601160045260246000fd5b600061430682613cbd565b91507fffffffffffffffffffffffffffffffffffffffffffffffffffffffffffffffff8203614338576143376142cc565b5b60018201905091905056fea26469706673582212205ad94cf30078593a3b2272ce250f779786e170239241f67d92eace76b0bd88e464736f6c63430008140033",
  "linkReferences": {},
  "deployedLinkReferences": {}
}